HDRxxxx000120121205114129SG                                                                                                                                                                                                                                                                                                                                                                                                                                                                                                                                                                                                                                                                                                                       
DTE0110095xxxxxxxxxxxxxxxxxxxxxxxxxxxxxx00000100000000000001001000000000000000000000000000                              NOME DO CLIENTE               000000000000000000000000000000000000000000000000000ENDERECO DO CLIENTE                          00001               BAIRRO                        CIDADE                        UF09351500                                        PF000001846170406000000000000000               00000010000000001000000000100000000001232412MARCA                    MODELO              01234          DESCRICAO DA MERCADORIA                           20121123201211232013112420141123             000001000000000000000000                                                                000000000000
DTE0110095xxxxxxxxxxxxxxxxxxxxxxxxxxxxxx00000100000000000002001000000000000000000000000000                              NOME DO CLIENTE               000000000000000000000000000000000000000000000000000ENDERECO DO CLIENTE                          00001               BAIRRO                        CIDADE                        UF09351500                                        PF000003510762403000000000000000               00000103980000009683000000071500000001232412MARCA                    MODELO              01234          DESCRICAO DA MERCADORIA                           20121123201211232013112420141123             000001000000000000000000                                                                000000000000
TRR000120121205114129000000002                                                                                                                                                                                                                                                                                                                                                                                                                                                                                                                                                                                                                                                                                                                    