HDR0205000420140106164942SG                                                                                                                                                                                                                                                                                                                                                                                                                                                                                                                                                                                                                                                                                                                       
DTE011009500000000006530201301009500009100002800002800000000                   00000000000                              DE MEO COM. IMP. LTDA         000000000000000000000000000000000000000000000000000ROD REGIS BITTENCOURT 77                     00000               CENTRO                        TABOAO DA SERRA               SP06768001                                        PJ060872124001918000000000000000               00000041250000003842000000028300000014733612ANAUGER                  ANAUGER             2090142        BOMBA SUB 900 450W 220V                           20131220201312202014122120161220             00000018399                                                                                         
DTE011009500000000006530201301009500009100007700007700000000                   00000000000                              RUTE APARECIDA JURADO NAVAS   000000000000000000000000000000000000000000000000000RUA SANTA LUZIA 636 CASA                     00000               VL S LUZIA                    TABOAO DA SERRA               SP06754005                                        PF000009339210808000000000000000               00000079120000007368000000054400000028242412SCHULZ                   SCHULZ              0401968        COMPR PRAT AIR MON CSA 8,2/25-30 11               20131207201312072014120820151207             00000054850                                                                                         
DTE011009500000000006530201301009500009100031600031600000010                   00000000000                              ELEIZETE DOS SANTOS SOUZA     000000000000000000000000000000000000000000000000000RUA ROsERA 548                               00000               PARQUE AMERICA                RIO GRANDE DA SERRA           SP09500000                                        PF000075812037868000000000000000               00000029170000002717000000020000000010412403TERRA                    TERRA               7060001        PULVERIZADOR TINTA TP350 W 110V                   20131202201312022014030320151202             00000022900                                                                                         
DTE011009500000000006530201301009500009100035300035300000010                   00000000000                              FABIO EDUARDO MARTINS STRAZZER000000000000000000000000000000000000000000000000000RUA ESCOCIA 65 .                             00000               JD EUROPA                     Sao Paulo                     SP01450000                                        PF000062573659887000000000000000               00000062700000005839000000043100000022382412MAKITA                   MAKITA              7318455        MART SDS PLUS HR2610 C/MAL 220V                   20131213201312132014121420151213             00000047900                                                                                         
DTE011009500000000006530201301009500009100035400035400000010                   00000000000                              ANTONIO CARLOS SA TELES       000000000000000000000000000000000000000000000000000RUA CRETA 98 ,                               00000               JD DO COLEGIO                 Sao Paulo                     SP05883040                                        PF000058240055591000000000000000               00000019030000001772000000013100000006793612B & D                    B & D               0617959        FUR IMP 3/8 TM500 500W/560W S/MAL 2               20131210201312102014121120161210             00000008990                                                                                         
DTE011009500000000006530201301009500009100064600064600000010                   00000000000                              ALZENI DE CASTRO SILVA        000000000000000000000000000000000000000000000000000RUA FLORAI  41 CASA                          00000               ITAIM PAULISTA                SAO PAULO                     SP08120460                                        PF000086369350591000000000000000               00000029170000002717000000020000000010412412MAKITA                   MAKITA              7318436        SERRA MARM 4100NH2Z SECO 220V                     20131204201312042014120520151204             00000024148                                                                                         
DTE011009500000000006530201301009500009100007700007700000010                   00000000000                              CLOVIS PIRES DE CAMARGO       000000000000000000000000000000000000000000000000000RUA OURO 56 0                                00000               CHS A LUCIA                   Embu                          SP06840200                                        PF000085390267834000000000000000               00000025680000002392000000017600000009172403VONDER                   VONDER              1583984        MICRO RETIF ECCOFER AR172 172AC 110               20131220201312202014032120151220             00000015990                                                                                         
DTE011009500000000006530201301009500009100036400036400000010                   00000000000                              CLAUDIA O ALVES               000000000000000000000000000000000000000000000000000RUA PATROCINIO PAULISTA 627 .                00000               C A E AZEVEDO                 CARAPICUIBA                   SP06390400                                        PF000026407045835000000000000000               00000019030000001772000000013100000006793603BRACOL                   BRACOL              6860013        MACACO JACARE 2T MAL BRMS-2M 24                   20131214201312142014031520161214             00000008900                                                                                         
DTE011009500000000006530201301009500009100018100018100000010                   00000000000                              Z&F PROJETOS COM LTDA         000000000000000000000000000000000000000000000000000RUA DR OLAVO EGIDIO 251                      00000               SANTANA                       Sao Paulo                     SP02037000                                        PJ059918169000178000000000000000               00000062700000005839000000043100000022382412BOSCH                    BOSCH               1160390        MART PERF/ROMP GBH2-24D PROF 2D0 11               20131206201312062014120720151206             00000046900                                                                                         
DTE011009500000000006530201301009500009100002800002800000010                   00000000000                              ROMARIO LIMA DOS SANTOS       000000000000000000000000000000000000000000000000000RUA NOVE 18 .                                00000               JD OLIVAS                     GUARULHOS                     SP07263533                                        PF000000963056573000000000000000               00000079120000007368000000054400000028242403BRACOL                   BRACOL              6860046        MISTURADOR 1400W RDFM140 220V 16339               20131205201312052014030620151205             00000054000                                                                                         
DTE011009500000000006530201301009500009100007700007700000011                   00000000000                              ADÃO ALVES DA SILVA           000000000000000000000000000000000000000000000000000RUA MINISTRO EDMUNDO LINS 135 0              00000               FERREIRA                      Sao Paulo                     SP05523000                                        PF000030265738849000000000000000               00000062700000005839000000043100000022382406TRAPP                    TRAPP               0521015        SOPRADOR/ASPIRADOR SF3000 220V 3000               20131230201312302014070120151230             00000042500                                                                                         
DTE011009500000000006530201301009500009100002800002800000011                   00000000000                              MARCO AURELIO SILVA DE SOUZA  000000000000000000000000000000000000000000000000000RUA SENADOR FELICIO DOS SANTOS 193 CASA 2    00000               LIBERDADE                     SAO PAULO                     SP01511010                                        PF000026296642873000000000000000               00000035310000003288000000024300000012612403TERRA                    TERRA               7060005        PULVERIZADOR TINTA TP900 W 220V                   20131213201312132014031420151213             00000029900                                                                                         
DTE011009500000000006530201301009500009100031600031600000011                   00000000000                              CLAUDIO MARINHO VILLELA       000000000000000000000000000000000000000000000000000RUA PEDROSO DA SILVA 610                     00000               PRQ PAULISTANO                SAO PAULO                     SP08080040                                        PF000066546257815000000000000000               00000029170000002717000000020000000010412403TERRA                    TERRA               7060002        PULVERIZADOR TINTA TP350 W 220V                   20131205201312052014030620151205             00000023900                                                                                         
DTE011009500000000006530201301009500009100036400036400000011                   00000000000                              MARCOS AUGUSTO BASSO          000000000000000000000000000000000000000000000000000RUA AURELIA 300 .                            00000               VL ROMANA                     SAO PAULO                     SP05046000                                        PF000027376080821000000000000000               00000100780000009385000000069300000035983600STIHL                    STIHL               6801013        LAV AP RE 98 120V 47750124502                     20131214201312142013121520161214             00000049900                                                                                         
DTE011009500000000006530201301009500009100064600064600000011                   00000000000                              ALZENI DE CASTRO SILVA        000000000000000000000000000000000000000000000000000RUA FLORAI  41 CASA                          00000               ITAIM PAULISTA                SAO PAULO                     SP08120460                                        PF000086369350591000000000000000               00000035310000003288000000024300000012612412BOSCH                    BOSCH               1160424        FUR IMP 1/2 GSB16RE 12185E0 S/MAL 2               20131204201312042014120520151204             00000028461                                                                                         
DTE011009500000000006530201301009500009100049700049700000011                   00000000000                              GEZER RIBEIRO                 000000000000000000000000000000000000000000000000000RUA OLEGARIO PAIVA 88 0                      00000               JD LUSO                       SAO PAULO                     SP04421130                                        PF000014858252884000000000000000               00000011840000001103000000008100000004232412B & D                    B & D               0617960        FUR IMP 3/8 TM500 500W/560W S/MAL 1               20131202201312022014120320151202             00000008990                                                                                         
DTE011009500000000006530201301009500009100035400035400000011                   00000000000                              PAULO REBOUCAS PEREIRA        000000000000000000000000000000000000000000000000000RUA GABRIEL DA HORA DO NASCIMENTO 47 .       00000               JD MITUZI                     TABOAO DA SERRA               SP06775300                                        PF000032871851875000000000000000               00000046890000004367000000032200000016743612MAKITA                   MAKITA              7318436        SERRA MARM 4100NH2Z SECO 220V                     20131214201312142014121520161214             00000022900                                                                                         
DTE011009500000000006530201301009500009100035300035300000011                   00000000000                              JOSE JORGE DA SILVA           000000000000000000000000000000000000000000000000000RUA CAPITAO JOHN CORDEIRO E SILVA 07 AP 1    00000               JD LUSO                       SAO PAULO                     SP04421060                                        PF000011200879880000000000000000               00000062700000005839000000043100000022382403BRACOL                   BRACOL              6860051        COMPR BRC 8,8X24/25L 2HP BIVOL C/KI               20131213201312132014031420151213             00000042400                                                                                         
DTE011009500000000006530201301009500009100064600064600000012                   00000000000                              JOSE BARROS DE SOUSA          000000000000000000000000000000000000000000000000000RUA FLOR DE QUARESMA 65 CASA                 00000               JD P J NUNES                  SAO PAULO                     SP08061340                                        PF000088134458815000000000000000               00000079120000007368000000054400000028242412BOSCH                    BOSCH               1160392        MART PERF/RP GBH2-24DF C/MAN 1E0 22               20131210201312102014121120151210             00000055400                                                                                         
DTE011009500000000006530201301009500009100035400035400000012                   00000000000                              ROGERIO MARIA GONÇALVES LOPES 000000000000000000000000000000000000000000000000000RUA MANUEL HOMEM DE ANDRADE 356 .            00000               JD S ANTONIO                  SAO PAULO                     SP05723400                                        PF000008996933856000000000000000               00000100780000009385000000069300000035983612MAKITA                   MAKITA              7318455        MART SDS PLUS HR2610 C/MAL 220V                   20131214201312142014121520161214             00000047900                                                                                         
DTE011009500000000006530201301009500009100049700049700000012                   00000000000                              PEDRO FELIX DE ANDRADE FILHO  000000000000000000000000000000000000000000000000000RUA 25 DE DEZEMBRO 03 0                      00000               PQR SÃO BERNADO               SAO BERNARDO DO CAMPO         SP00000000                                        PF000018374641894000000000000000               00000100780000009385000000069300000035983612MAKITA                   MAKITA              7318455        MART SDS PLUS HR2610 C/MAL 220V                   20131202201312022014120320161202             00000047900                                                                                         
DTE011009500000000006530201301009500009100036400036400000012                   00000000000                              EDER DOS SANTOS LEANDRO       000000000000000000000000000000000000000000000000000R JONNY ANDERSON DE OLIVEIRA SALVADOR 152 .  00000               CALCAIA DO ALTO               COTIA                         SP06727300                                        PF000037242507898000000000000000               00000136840000012744000000094000000048852406BRANCO                   BRANCO              1480031        MT GAS 06,5HP B4T H P/E 90500343                  20131214201312142014061520151214             00000129900                                                                                         
DTE011009500000000006530201301009500009100031600031600000012                   00000000000                              EZEQUIAS SOUZA BLOGOSLAWSKI   000000000000000000000000000000000000000000000000000RUA JOSE ANGEL LAMAS 10                      00000               CJ HAB T VILELA               SAO PAULO                     SP03927415                                        PF000030661109828000000000000000               00000035310000003288000000024300000012612403TERRA                    TERRA               7060005        PULVERIZADOR TINTA TP900 W 220V                   20131205201312052014030620151205             00000029900                                                                                         
DTE011009500000000006530201301009500009100002800002800000012                   00000000000                              ODACIR SOUZA DOS SANTOS       000000000000000000000000000000000000000000000000000RUA APARECIDA DO TABOADO 209 ALA 2           00000               JD PAULISTANO                 SAO PAULO                     SP02814000                                        PF000063730235591000000000000000               00000035310000003288000000024300000012612412KARCHER                  KARCHER             4330155        ASP 20L A2214 1400W 110V                          20131214201312142014121520151214             00000028900                                                                                         
DTE011009500000000006530201301009500009100002800002800000013                   00000000000                              VANICE RODRIGUES CESTARI      000000000000000000000000000000000000000000000000000RUA SANTO ANDRE 10 CASA                      00000               CJ HAB PRES C BRANCO          CARAPICUIBA                   SP06326410                                        PF000065033604872000000000000000               00000011840000001103000000008100000004232412B & D                    B & D               0617960        FUR IMP 3/8 TM500 500W/560W S/MAL 1               20131217201312172014121820151217             00000008990                                                                                         
DTE011009500000000006530201301009500009100036400036400000013                   00000000000                              PAULO ANTONIO DA SILVA        000000000000000000000000000000000000000000000000000ESTRADA DO ELENCO  664 COMERCIO              00000               TABOAO                        Guarulhos                     SP00000000                                        PF000030570255449000000000000000               00000028320000002637000000019500000010113603BRACOL                   BRACOL              6860054        BOMBA PERIF BRB120 1/2CV MON BIV                  20131217201312172014031820161217             00000014400                                                                                         
DTE011009500000000006530201301009500009100049700049700000013                   00000000000                              RENAN SANTOS REIS             000000000000000000000000000000000000000000000000000RUA FRANCISCO ALVES 206 0                    00000               PRQ S SETEMBRO                DIADEMA                       SP09910020                                        PF000036771523802000000000000000               00000029170000002717000000020000000010412412MAKITA                   MAKITA              7318384        SERRA MARM 4100NH2Z SECO 110V                     20131203201312032014120420151203             00000022900                                                                                         
DTE011009500000000006530201301009500009100035400035400000013                   00000000000                              ISAAC ARAUJO CUNHA            000000000000000000000000000000000000000000000000000RUA NEI JOSE BORGES 104 .                    00000               VL S JOSE                     SAO PAULO                     SP04836140                                        PF000008865319852000000000000000               00000046890000004367000000032200000016743612TRAPP                    TRAPP               0520009        APARADOR FIO NYLON MASTER 800 PLUS1               20131214201312142014121520161214             00000021500                                                                                         
DTE011009500000000006530201301009500009100031600031600000013                   00000000000                              JUST VESTES MODAS LTDA        000000000000000000000000000000000000000000000000000RUA GRACA, DA 3739                           00000               B RETIRO                      SAO PAULO                     SP01125001                                        PJ011085759000130000000000000000               00000029170000002717000000020000000010412403TERRA                    TERRA               7060002        PULVERIZADOR TINTA TP350 W 220V                   20131205201312052014030620151205             00000023900                                                                                         
DTE011009500000000006530201301009500009100064600064600000013                   00000000000                              RENATO ALBINO                 000000000000000000000000000000000000000000000000000r maria josefina dos passos, 177             00000               CENTRO                        ITAQUAQUECETUBA               SP08570630                                        PF000001002955840000000000000000               00000011840000001103000000008100000004232412B & D                    B & D               0618048        FUR 3/8 500W HD 400-BR 110V                       20131211201312112014121220151211             00000008990                                                                                         
DTE011009500000000006530201301009500009100035300035300000013                   00000000000                              LAVA RÁPIDO E LANCHONETE DAS A000000000000000000000000000000000000000000000000000RUA LUIS DE ALMEIDA CARVALHO 438             00000               JD ARABUTAM                   Embu                          SP06803240                                        PJ014059370000109000000000000000               00000136840000012744000000094000000048852412SCHULZ                   SCHULZ              0402008        ASP HIDROPO 2000W 70LTS 220V                      20131217201312172014121820151217             00000124400                                                                                         
DTE011009500000000006530201301009500009100064600064600000014                   00000000000                              RENATO ALBINO                 000000000000000000000000000000000000000000000000000r maria josefina dos passos, 177             00000               CENTRO                        ITAQUAQUECETUBA               SP08570630                                        PF000001002955840000000000000000               00000011840000001103000000008100000004232412B & D                    B & D               0618048        FUR 3/8 500W HD 400-BR 110V                       20131211201312112014121220151211             00000008990                                                                                         
DTE011009500000000006530201301009500009100035400035400000014                   00000000000                              ENIO DOS SANTOS               000000000000000000000000000000000000000000000000000AVENIDA FUNCIONARIOS PUBLICOS, DOS 471 .     00000               C F P COLONIA                 SAO PAULO                     SP04962000                                        PF000002169305530000000000000000               00000127150000011841000000087400000045393612BOSCH                    BOSCH               1160392        MART PERF/RP GBH2-24DF C/MAN 1E0 22               20131216201312162014121720161216             00000055400                                                                                         
DTE011009500000000006530201301009500009100049700049700000014                   00000000000                              ADRIANO MARESCALCHI BRITO     000000000000000000000000000000000000000000000000000AVENIDA JOSE BONIFACIO 1348 .                00000               VL CONCEICAO                  DIADEMA                       SP09960120                                        PF000031780094850000000000000000               00000136840000012744000000094000000048852406GARTHEN                  GARTHEN             1780447        COMPR CMV 10PL/100 2HP MONO 220V                  20131204201312042014060520151204             00000139900                                                                                         
DTE011009500000000006530201301009500009100036400036400000014                   00000000000                              FERNANDO ASTOLPHI MILANESI    000000000000000000000000000000000000000000000000000RUA AGENOR TEIXEIRA DE MELLO 421 ,           00000               CJ HAB H POPOLO               BOTUCATU                      SP18605140                                        PF000011053841876000000000000000               00000079120000007368000000054400000028242400STIHL                    STIHL               6801013        LAV AP RE 98 120V 47750124502                     20131217201312172013121820151217             00000055464                                                                                         
DTE011009500000000006530201301009500009100002800002800000014                   00000000000                              MOACIR DONIZETE BUENO         000000000000000000000000000000000000000000000000000RUA NOITE E DIA 41 CASA                      00000               JD S CARLOS                   SAO PAULO                     SP08062650                                        PF000005868019873000000000000000               00000048490000004516000000033300000017312412SCHULZ                   SCHULZ              0402010        COMPR JET FACIL 40LB BIVOLT                       20131217201312172014121820151217             00000037800                                                                                         
DTE011009500000000006530201301009500009100035300035300000014                   00000000000                              GERALDO TERTULINO DOS SANTOS  000000000000000000000000000000000000000000000000000RUA PINTADOS, DOS 31                         00000               PRQ LAGO                      SAO PAULO                     SP04944150                                        PF000028752690890000000000000000               00000062700000005839000000043100000022382412MAKITA                   MAKITA              7310307        SERRA CIRC 7.1/4 5007N 220V                       20131218201312182014121920151218             00000046600                                                                                         
DTE011009500000000006530201301009500009100031600031600000014                   00000000000                              MARCELO MOURA LOPES           000000000000000000000000000000000000000000000000000RUA NOVA TIMBOTEUA 52                        00000               VL IZABEL                     GUARULHOS                     SP07241460                                        PF000029952213859000000000000000               00000029170000002717000000020000000010412403TERRA                    TERRA               7060001        PULVERIZADOR TINTA TP350 W 110V                   20131207201312072014030820151207             00000023900                                                                                         
DTE011009500000000006530201301009500009100031600031600000015                   00000000000                              PEDRO LUIS VENTURA            000000000000000000000000000000000000000000000000000RUA MAJOR CARDIM 780                         00000               VL MORTARI                    RIBEIRAO PIRES                SP09424250                                        PF000087975130834000000000000000               00000029170000002717000000020000000010412403TERRA                    TERRA               7060001        PULVERIZADOR TINTA TP350 W 110V                   20131209201312092014031020151209             00000023900                                                                                         
DTE011009500000000006530201301009500009100087400087400000015                   00000000000                              CARLOS ALBERTO NORQUIRA GUIMAR000000000000000000000000000000000000000000000000000RUA PAULISTA 702                             00000               JD CONCEICAO                  OSASCO                        SP06140030                                        PF000003404076893000000000000000               00000025680000002392000000017600000009172412MAKITA                   MAKITA              7318442        SOPRADOR MUB103 110V                              20131209201312092014121020151209             00000018546                                                                                         
DTE011009500000000006530201301009500009100035300035300000015                   00000000000                              JOSE RODRIGUES MARIZ          000000000000000000000000000000000000000000000000000RUA IMPERATRIZ DONA AMELIA 13 .              00000               VL TIRADENTES                 SAO PAULO                     SP05368080                                        PF000004843410497000000000000000               00000062700000005839000000043100000022382412BOSCH                    BOSCH               1160391        MART PERF/ROMP GBH2-24D PROF 2E0 22               20131218201312182014121920151218             00000049456                                                                                         
DTE011009500000000006530201301009500009100049700049700000015                   00000000000                              RODRIGO MAKOTO MATSUMURA      000000000000000000000000000000000000000000000000000AV VER JUARES RIOS DE VASCONCELOS 292 0      00000               PRQ GALICIA                   DIADEMA                       SP09920610                                        PF000027807650893000000000000000               00000025680000002392000000017600000009172412B & D                    B & D               0610368        FUR IMP 1/2 HD560K OFICINA 110V VVR               20131205201312052014120620151205             00000019990                                                                                         
DTE011009500000000006530201301009500009100035400035400000015                   00000000000                              DENIS LEITE DE ALENCAR        000000000000000000000000000000000000000000000000000RUA ABRAM CHAIM PRYZANT 259 .                00000               PRQ S ANTONIO                 SAO PAULO                     SP05852410                                        PF000060862616360000000000000000               00000219950000020483000000151200000078523612MAKITA                   MAKITA              7318473        KIT FUR/PAR/PAR IMP/LANT LCT303X 22               20131216201312162014121720161216             00000077900                                                                                         
DTE011009500000000006530201301009500009100064600064600000015                   00000000000                              RENATO ALBINO                 000000000000000000000000000000000000000000000000000r maria josefina dos passos, 177             00000               CENTRO                        ITAQUAQUECETUBA               SP08570630                                        PF000001002955840000000000000000               00000011840000001103000000008100000004232412B & D                    B & D               0618048        FUR 3/8 500W HD 400-BR 110V                       20131211201312112014121220151211             00000008990                                                                                         
DTE011009500000000006530201301009500009100036400036400000015                   00000000000                              CASSIANO BRITO BONJARDIM      000000000000000000000000000000000000000000000000000RUA ARTUR DE AZEEDO 2013 AP 103              00000               PINHEIROS                     SAO PAULO                     SP05404015                                        PF000074176102187000000000000000               00000136840000012744000000094000000048852400STIHL                    STIHL               6800982        ROCAD GAS 1,3CV GSB 230 FS 80 0249                20131219201312192013122020151219             00000084500                                                                                         
DTE011009500000000006530201301009500009100036400036400000016                   00000000000                              FRANCISCO ANTONIO GOMES DE SOU000000000000000000000000000000000000000000000000000RUA AGATON DE ANTENAS 97 .                   00000               CJ.CITI JARAGUA               SAO PAULO                     SP02998150                                        PF000032994253828000000000000000               00000136840000012744000000094000000048852406BRANCO                   BRANCO              1480076        GER GAS 2200W MONO B4T2500S CORUJ P               20131220201312202014062120151220             00000129900                                                                                         
DTE011009500000000006530201301009500009100035400035400000016                   00000000000                              ANTONIO DIAS VIEIRA           000000000000000000000000000000000000000000000000000RUA ADOLFO PINHEIRO 154 .                    00000               CENTRO                        ITAPECERICA DA SERRA          SP06850770                                        PF000026470896804000000000000000               00000219950000020483000000151200000078523606BEAVER                   BEAVER              1290011        ROCAD ELETR BEAVER LIGHT PROF 1HP 1               20131218201312182014061920161218             00000075000                                                                                         
DTE011009500000000006530201301009500009100035300035300000016                   00000000000                              JOSE RENATO MOSCADI           000000000000000000000000000000000000000000000000000RUA CUNHA GAGO 778 CASA                      00000               PINHEIROS                     SAO PAULO                     SP05421001                                        PF000021217033815000000000000000               00000136840000012744000000094000000048852412KARCHER                  KARCHER             4330023        LAV AP HD 585 PROF 220V 1974185                   20131219201312192014122020151219             00000109900                                                                                         
DTE011009500000000006530201301009500009100064600064600000016                   00000000000                              VANDERLINO REISSILVA          000000000000000000000000000000000000000000000000000RUA JACARETINGA 41 CASA                      00000               VL PROGRESSO                  SAO PAULO                     SP08140410                                        PF000024812766800000000000000000               00000079120000007368000000054400000028242412BOSCH                    BOSCH               1160320        MART PERF GBH2-26 DRE 11253 220V                  20131212201312122014121320151212             00000054900                                                                                         
DTE011009500000000006530201301009500009100087400087400000016                   00000000000                              APARECIDO JOSE DE ANDRADE     000000000000000000000000000000000000000000000000000RUA ANTONIO BIZZARRO 97                      00000               JD BELA VISTA                 OSASCO                        SP00000000                                        PF000053305370882000000000000000               00000062700000005839000000043100000022382406GARTHEN                  GARTHEN             1780095        FUR HOBBY 1/3HP FBH-130I MON 220V                 20131210201312102014061120151210             00000042446                                                                                         
DTE011009500000000006530201301009500009100064600064600000017                   00000000000                              VICTOR DE SOUSA GARCIA        000000000000000000000000000000000000000000000000000RUA CANCAO DOS OLHOS 164 CASA                00000               VL SIMONE                     SAO PAULO                     SP08110130                                        PF000025262383823000000000000000               00000048490000004516000000033300000017312412B & D                    B & D               0618064        PISTOLA PINT HVLP 1L 390W BDPH400 1               20131213201312132014121420151213             00000031800                                                                                         
DTE011009500000000006530201301009500009100087400087400000017                   00000000000                              ROSILENE DE JESUS MIRANDA     000000000000000000000000000000000000000000000000000RUA IGARAPAVA 230 AP 44                      00000               CJ HAB PRES C BRANCO          CARAPICUIBA                   SP06328060                                        PF000014409971875000000000000000               00000035310000003288000000024300000012612412BOSCH                    BOSCH               1160031        ESM ANG 4.1/2 GWS7-115 ET 3885E1 22               20131214201312142014121520151214             00000026990                                                                                         
DTE011009500000000006530201301009500009100002800002800000017                   00000000000                              MARCELO BRAMBILA              000000000000000000000000000000000000000000000000000AVENIDA PIASSANGUABA 2933 CASA               00000               P PAULISTA                    SAO PAULO                     SP04060000                                        PF000014909426884000000000000000               00000035310000003288000000024300000012612412B & D                    B & D               0610026        PLAINA ELET 3.1/4 650W 7698 220V                  20131217201312172014121820151217             00000025400                                                                                         
DTE011009500000000006530201301009500009100035400035400000017                   00000000000                              JOSE BARBOSA DA COSTA         000000000000000000000000000000000000000000000000000RUA SESTILIO MELANI 20 .                     00000               CJ HAB A E CARVALHO           SAO PAULO                     SP08225485                                        PF000086683896453000000000000000               00000048490000004516000000033300000017312412B & D                    B & D               0618068        PISTOLA PINT HVLP 1L 320W BDPH400 2               20131218201312182014121920151218             00000031800                                                                                         
DTE011009500000000006530201301009500009100036400036400000017                   00000000000                              SIDNEI CAMARGO FERRONI        000000000000000000000000000000000000000000000000000RUA CONSELHEIRO BROTERO 823 AP 153           00000               S CECILIA                     SAO PAULO                     SP01232011                                        PF000069788146872000000000000000               00000048490000004516000000033300000017312406BEAVER                   BEAVER              1290045        ROCAD ELETR BEAVER HOBBY 1/2HP 220V               20131230201312302014070120151230             00000037300                                                                                         
DTE011009500000000006530201301009500009100087400087400000018                   00000000000                              JOSE MATEUS DE JESUS SOBRINHO 000000000000000000000000000000000000000000000000000RUA ACHILES BELINE 793                       00000               JD TURIBIO                    OSASCO                        SP06162280                                        PF000000810105837000000000000000               00000011840000001103000000008100000004232412B & D                    B & D               0617959        FUR IMP 3/8 TM500 500W/560W S/MAL 2               20131228201312282014122920151228             00000009564                                                                                         
DTE011009500000000006530201301009500009100035400035400000018                   00000000000                              JOSE ANTONIO BARBOSA          000000000000000000000000000000000000000000000000000RUA RITA MATILDE COSTA 275 .                 00000               JD ITAPURA                    SAO PAULO                     SP04466050                                        PF000009068637835000000000000000               00000100780000009385000000069300000035983612MAKITA                   MAKITA              7310307        SERRA CIRC 7.1/4 5007N 220V                       20131221201312212014122220161221             00000046600                                                                                         
DTE011009500000000006530201301009500009100002800002800000018                   00000000000                              MARCELO BRAMBILA              000000000000000000000000000000000000000000000000000AVENIDA PIASSANGUABA 2933 CASA               00000               P PAULISTA                    SAO PAULO                     SP04060000                                        PF000014909426884000000000000000               00000136840000012744000000094000000048852403TOYAMA                   TOYAMA              6000044        MOTOSSERRA MT/TCS53 20 50CM                       20131217201312172014031820151217             00000072900                                                                                         
DTE011009500000000006530201301009500009100064600064600000018                   00000000000                              JOSIVAL JOSE DA SILVA         000000000000000000000000000000000000000000000000000RUA CANINANA 1008                            00000               JD NOEMIA                     Sao Paulo                     SP08180090                                        PF000013865590837000000000000000               00000136840000012744000000094000000048852412KARCHER                  KARCHER             4330090        LAV AP HD 5/12C MON 220V 15141150                 20131214201312142014121520151214             00000142000                                                                                         
DTE011009500000000006530201301009500009100064600064600000019                   00000000000                              JOSE CARLOS SOUZA ARANHA      000000000000000000000000000000000000000000000000000RUA VITORIO NEGRELLE 291                     00000               JD CAMARGO                    SAO PAULO                     SP08121780                                        PF000085269956853000000000000000               00000048490000004516000000033300000017312412KARCHER                  KARCHER             4330152        LAV AP K2.350 C/DESENT/MANG 110V                  20131217201312172014121820151217             00000039900                                                                                         
DTE011009500000000006530201301009500009100002800002800000019                   00000000000                              ALEX CONIN SANTOS             000000000000000000000000000000000000000000000000000RUA JOSE ROSCHEL RODRIGUES 1881 CASA 04      00000               SIT LAREDO                    SAO PAULO                     SP04880130                                        PF000006445737838000000000000000               00000136840000012744000000094000000048852400STIHL                    STIHL               6800982        ROCAD GAS 1,3CV GSB 230 FS 80 0249                20131218201312182013121920151218             00000093922                                                                                         
DTE011009500000000006530201301009500009100087400087400000019                   00000000000                              JOSE MATEUS DE JESUS SOBRINHO 000000000000000000000000000000000000000000000000000RUA ACHILES BELINE 793                       00000               JD TURIBIO                    OSASCO                        SP06162280                                        PF000000810105837000000000000000               00000017620000001641000000012100000006292412SKIL                     SKIL                6140039        FUR IMP 3/8 6554 JA 220V VVR                      20131228201312282014122920151228             00000013404                                                                                         
DTE011009500000000006530201301009500009100035400035400000019                   00000000000                              JOSE ANTONIO BARBOSA          000000000000000000000000000000000000000000000000000RUA RITA MATILDE COSTA 275 .                 00000               JD ITAPURA                    SAO PAULO                     SP04466050                                        PF000009068637835000000000000000               00000077950000007259000000053600000027833612B & D                    B & D               0618068        PISTOLA PINT HVLP 1L 320W BDPH400 2               20131221201312212014122220161221             00000031800                                                                                         
DTE011009500000000006530201301009500009100007700007700000002                   00000000000                              RISONALDO DA SILVA LIMA       000000000000000000000000000000000000000000000000000RUA MARIA DE LOURDES SALOMAO 205             00000               JD CATANDUVA                  SAO PAULO                     SP05758150                                        PF000090946472491000000000000000               00000025680000002392000000017600000009172412B & D                    B & D               0610428        SOPRADOR TERMICO HG2000K 220V MAL                 20131206201312062014120720151206             00000015900                                                                                         
DTE011009500000000006530201301009500009100094300094300000002                   00000000000                              ANDERSON DALOMO  DE QUEIROZ - 000000000000000000000000000000000000000000000000000PRI.-TEN AVIADOR JOAO MAURICIO CAMPOS  103 . 00000               VL HERMINIA                   Guarulhos                     SP07030150                                        PJ017827168000178000000000000000               00000019030000001772000000013100000006793603BRACOL                   BRACOL              6860013        MACACO JACARE 2T MAL BRMS-2M 24                   20131202201312022014030320161202             00000008900                                                                                         
DTE011009500000000006530201301009500009100053500053500000002                   00000000000                              VINICIOS PASCHOAL AGUIRRE     000000000000000000000000000000000000000000000000000AVENIDA PROFESSOR CELESTINO BOURROUL 470 ,   00000               JD P LEITE                    Sao Paulo                     SP02710000                                        PF000025303982831000000000000000               00000100780000009385000000069300000035983600STIHL                    STIHL               6801014        LAV AP RE 98 220V 47750124503                     20131206201312062013120720161206             00000049900                                                                                         
DTE011009500000000006530201301009500009100087400087400000020                   00000000000                              ZITACO GOMES DA SILVA         000000000000000000000000000000000000000000000000000AV CRUZEIRO DO SUL 1833                      00000               JD ROCDALE                    OSASCO                        SP06226008                                        PF000038931642865000000000000000               00000017620000001641000000012100000006292412SUPER TORK               SUPER TORK          7150010        BOMBA PERIF 1/2HP BP-612/1 BIV                    20131228201312282014122920151228             00000014990                                                                                         
DTE011009500000000006530201301009500009100002800002800000020                   00000000000                              LUIZ CARLOS FERREIRA DOS SANTO000000000000000000000000000000000000000000000000000RUA BARRETOS 414 .                           00000               RCR PRIMAVERA                 Itapecerica da Serra          SP06857620                                        PF000028276637833000000000000000               00000079120000007368000000054400000028242403BRACOL                   BRACOL              6860061        SERRA CIRC BANC 10 BRS2500 220V 150               20131218201312182014031920151218             00000053900                                                                                         
DTE011009500000000006530201301009500009100064600064600000020                   00000000000                              JOSE WILSON LOPES SOARES      000000000000000000000000000000000000000000000000000RUA MONTE LAMBARA 90                         00000               PRQ S AMELIA                  SAO PAULO                     SP08122390                                        PF000003450025805000000000000000               00000048490000004516000000033300000017312412KARCHER                  KARCHER             4330152        LAV AP K2.350 C/DESENT/MANG 110V                  20131219201312192014122020151219             00000039900                                                                                         
DTE011009500000000006530201301009500009100035400035400000020                   00000000000                              ALBERTO DE OLIVEIRA LEMOS     000000000000000000000000000000000000000000000000000RUA JOSE ANTONIO SANTOS 31 ,                 00000               JD THOMAZ                     Sao Paulo                     SP05834120                                        PF000043567304534000000000000000               00000219950000020483000000151200000078523603TOYAMA                   TOYAMA              6000087        MOTOBOMBA GAS 2X2  AE C/Q TFAE2RF55               20131223201312232014032420161223             00000083900                                                                                         
DTE011009500000000006530201301009500009100002800002800000021                   00000000000                              GUADALUPE CECILIA MAYTORENA SA000000000000000000000000000000000000000000000000000AV ENGENHEIRO ARMANDO DE ARRUDA PEREIRA 562  00000               JABAQUARA                     SAO PAULO                     SP04308000                                        PF000011655152882000000000000000               00000025680000002392000000017600000009172412B & D                    B & D               0610398        LIX ORBITAL CD450 110V VV 135W                    20131219201312192014122020151219             00000017200                                                                                         
DTE011009500000000006530201301009500009100087400087400000021                   00000000000                              EDUARDO PINHEIRO BARBOSA      000000000000000000000000000000000000000000000000000KEMKI SMOMO 15                               00000               JAGUARE                       SAO PAULO                     SP00000000                                        PF000014358855890000000000000000               00000017620000001641000000012100000006292412SUPER TORK               SUPER TORK          7150010        BOMBA PERIF 1/2HP BP-612/1 BIV                    20131230201312302014123120151230             00000014990                                                                                         
DTE011009500000000006530201301009500009100035400035400000021                   00000000000                              FAUZE ABDUL                   000000000000000000000000000000000000000000000000000RUA JEQUIRITUBA 1859 CASA                    00000               JD MALIA II                   SAO PAULO                     SP04822000                                        PF000028425077893000000000000000               00000041250000003842000000028300000014733612B & D                    B & D               0610368        FUR IMP 1/2 HD560K OFICINA 110V VVR               20131224201312242014122520161224             00000019990                                                                                         
DTE011009500000000006530201301009500009100035400035400000022                   00000000000                              ROSENEIRE DO DIVINO ESPIRITO S000000000000000000000000000000000000000000000000000RUA GASTAO RAUL DE FORTON BOUSQUET 305 .     00000               JD IPE                        SAO PAULO                     SP05797000                                        PF000063166020659000000000000000               00000079120000007368000000054400000028242412SUPER TORK               SUPER TORK          7150003        INVERSORA SLD 150A I6150/I 220V                   20131226201312262014122720151226             00000061990                                                                                         
DTE011009500000000006530201301009500009100002800002800000022                   00000000000                              MARIA APARECIDA DIAS ALVES    000000000000000000000000000000000000000000000000000RUA OSCAR VIANA 25                           00000               CENTRO                        RIO DE CONTAS                 BA46170000                                        PF000049528912591000000000000000               00000136840000012744000000094000000048852403TOYAMA                   TOYAMA              6000044        MOTOSSERRA MT/TCS53 20 50CM                       20131220201312202014032120151220             00000072900                                                                                         
DTE011009500000000006530201301009500009100035400035400000023                   00000000000                              SILMARA LUCIA DOS SANTOS CERQU000000000000000000000000000000000000000000000000000RUA LANGANES 486 .                           00000               JD VLE VIRTUDES               SAO PAULO                     SP05796080                                        PF000025443629875000000000000000               00000136840000012744000000094000000048852406BEAVER                   BEAVER              1290029        ROCAD ELETR BEAVER LIGHT PROF 1HP 2               20131227201312272014062820151227             00000075000                                                                                         
DTE011009500000000006530201301009500009100002800002800000023                   00000000000                              GEILSON FERREIRA DO SNATOS    000000000000000000000000000000000000000000000000000RUA FORCA PUBLICA 694 CASA                   00000               VL BARAO                      SAO PAULO                     SP18061190                                        PF000032244564851000000000000000               00000025680000002392000000017600000009172412B & D                    B & D               0618088        FUR IMP 1/2 OFICINA TM550KP 110V                  20131220201312202014122120151220             00000019900                                                                                         
DTE011009500000000006530201301009500009100002800002800000024                   00000000000                              MARCELO BORGES FERREIRA       000000000000000000000000000000000000000000000000000RUA GANDAVO 477                              00000               VILA MARIANA                  SAO PAULO                     SP00000000                                        PF000004073907581000000000000000               00000025680000002392000000017600000009172412B & D                    B & D               0610368        FUR IMP 1/2 HD560K OFICINA 110V VVR               20131220201312202014122120151220             00000019990                                                                                         
DTE011009500000000006530201301009500009100002800002800000025                   00000000000                              HIDEVAL FERREIRA GONÇALVES    000000000000000000000000000000000000000000000000000RUA FRANCISCO SACCO 233 CASA                 00000               JD HERCULANO                  SAO PAULO                     SP04920020                                        PF000031420120875000000000000000               00000062700000005839000000043100000022382403BRACOL                   BRACOL              6860051        COMPR BRC 8,8X24/25L 2HP BIVOL C/KI               20131220201312202014032120151220             00000042400                                                                                         
DTE011009500000000006530201301009500009100002800002800000026                   00000000000                              CLAUDIO CESAR RODRIGUES       000000000000000000000000000000000000000000000000000RUA GORO OHYA 177 .                          00000               EUCALIPTOS                    LONDRINA                      PR86031640                                        PF000053575733953000000000000000               00000019030000001772000000013100000006793612B & D                    B & D               0618095        PARAF BAT 3,6V LITIO L1200 BIV                    20131221201312212014122220161221             00000009900                                                                                         
DTE011009500000000006530201301009500009100002800002800000027                   00000000000                              FABIO CARLOS GOMES            000000000000000000000000000000000000000000000000000AVENIDA ANDRE DE ALMEIDA 2202 A              00000               C S MATEUS                    SAO PAULO                     SP03950000                                        PF000021361553855000000000000000               00000025680000002392000000017600000009172412B & D                    B & D               0618088        FUR IMP 1/2 OFICINA TM550KP 110V                  20131223201312232014122420151223             00000019900                                                                                         
DTE011009500000000006530201301009500009100035300035300000003                   00000000000                              GIRLEI BATISTA DE OLIVEIRA    000000000000000000000000000000000000000000000000000RUA NOSSA SENHORA DA PENHA 42 CASA           00000               JD. SANTO ANTONIO             EMBU                          SP06835435                                        PF000015566019803000000000000000               00000062700000005839000000043100000022382412MAKITA                   MAKITA              7318455        MART SDS PLUS HR2610 C/MAL 220V                   20131203201312032014120420151203             00000047900                                                                                         
DTE011009500000000006530201301009500009100027100027100000003                   00000000000                              EVALDO TELES                  000000000000000000000000000000000000000000000000000RUA ITAJUBAQUARA 455 C                       00000               PARAISOPOLIS                  SAO PAULO                     SP05661050                                        PF000015761735857000000000000000               00000017620000001641000000012100000006292403BRACOL                   BRACOL              6860054        BOMBA PERIF BRB120 1/2CV MON BIV                  20131218201312182014031920151218             00000014400                                                                                         
DTE011009500000000006530201301009500009100053500053500000003                   00000000000                              LDP SOLUCOES, CURSOS TREINAMEN000000000000000000000000000000000000000000000000000RUA GERMAN BURMEINSTER 301                   00000               VL N MAZZEI                   SAO PAULO                     SP02317100                                        PJ007391001000153000000000000000               00000136840000012744000000094000000048852400STIHL                    STIHL               6801027        MOTOSSERRA 91CC 5,2KW GAS MS660 75C               20131206201312062013120720151206             00000279600                                                                                         
DTE011009500000000006530201301009500009100007700007700000003                   00000000000                              RISONALDO DA SILVA LIMA       000000000000000000000000000000000000000000000000000RUA MARIA DE LOURDES SALOMAO 205             00000               JD CATANDUVA                  SAO PAULO                     SP05758150                                        PF000090946472491000000000000000               00000017620000001641000000012100000006292406VONDER                   VONDER              1583852        MOTO ESMERIL 360W 220V ECCOFER                    20131206201312062014060720151206             00000010900                                                                                         
DTE011009500000000006530201301009500009100004800004800000033                   00000000000                              RODOLFO MELO DA SILVA         000000000000000000000000000000000000000000000000000VILA GERALDO MENDES 35 CASA B                00000               PRQ S DIOGO                   SAO BERNARDO DO CAMPO         SP09732605                                        PF000028404597871000000000000000               00000035310000003288000000024300000012612403TERRA                    TERRA               7060005        PULVERIZADOR TINTA TP900 W 220V                   20131202201312022014030320151202             00000028900                                                                                         
DTE011009500000000006530201301009500009100004800004800000034                   00000000000                              ROBERTO MARCELINO DIAS        000000000000000000000000000000000000000000000000000RUA NOVA REZENDE 350 CASA                    00000               PRQ S MADALENA                SAO PAULO                     SP03981090                                        PF000017786254870000000000000000               00000136840000012744000000094000000048852400STIHL                    STIHL               6800982        ROCAD GAS 1,3CV GSB 230 FS 80 0249                20131202201312022013120320151202             00000090204                                                                                         
DTE011009500000000006530201301009500009100004800004800000035                   00000000000                              SEBASTIÃO FERREIRA DE OLIVEIRA000000000000000000000000000000000000000000000000000RUA JOAO DE OLIVA 160 CS                     00000               JD S VICENTE                  SAO PAULO                     SP04813190                                        PF000007230799864000000000000000               00000029170000002717000000020000000010412403TERRA                    TERRA               7060001        PULVERIZADOR TINTA TP350 W 110V                   20131203201312032014030420151203             00000022900                                                                                         
DTE011009500000000006530201301009500009100004800004800000036                   00000000000                              CARLOS EDUARDO DA GLORIA      000000000000000000000000000000000000000000000000000RUA IGARAPE SANTA CRUZ 116 CASA              00000               CJ HAB I MONTEIRO             SAO PAULO                     SP08472320                                        PF000010624413896000000000000000               00000035310000003288000000024300000012612403TERRA                    TERRA               7060005        PULVERIZADOR TINTA TP900 W 220V                   20131203201312032014030420151203             00000028900                                                                                         
DTE011009500000000006530201301009500009100004800004800000037                   00000000000                              CONSTRUTORA TRAVERSA LTDA     000000000000000000000000000000000000000000000000000RUA ALCIDES RICARDINE NEVES 12               00000               BROOKILIN                     SAO PAULO                     SP00000000                                        PJ006259132000119000000000000000               00000035310000003288000000024300000012612403TERRA                    TERRA               7060005        PULVERIZADOR TINTA TP900 W 220V                   20131204201312042014030520151204             00000028900                                                                                         
DTE011009500000000006530201301009500009100004800004800000038                   00000000000                              MARCOS WESLLEY DE SOUZA       000000000000000000000000000000000000000000000000000RUA FRANCISCO DE OLIVEIRA PENTEADO 1390      00000               VL RICA                       PINDAMONHANGABA               SP12422450                                        PF000026597819829000000000000000               00000025680000002392000000017600000009172412B & D                    B & D               0610368        FUR IMP 1/2 HD560K OFICINA 110V VVR               20131204201312042014120520151204             00000019990                                                                                         
DTE011009500000000006530201301009500009100004800004800000039                   00000000000                              ALCIDES FERREIRA SANTOS       000000000000000000000000000000000000000000000000000RUA GROELANDIA 38                            00000               PRQ DAS NACOES                SANTO ANDRE                   SP00000000                                        PF000051353873820000000000000000               00000035310000003288000000024300000012612403TERRA                    TERRA               7060005        PULVERIZADOR TINTA TP900 W 220V                   20131204201312042014030520151204             00000028900                                                                                         
DTE011009500000000006530201301009500009100007700007700000004                   00000000000                              RUTE APARECIDA JURADO NAVAS   000000000000000000000000000000000000000000000000000RUA SANTA LUZIA 636 CASA                     00000               VL S LUZIA                    TABOAO DA SERRA               SP06754005                                        PF000009339210808000000000000000               00000079120000007368000000054400000028242412SCHULZ                   SCHULZ              0401968        COMPR PRAT AIR MON CSA 8,2/25-30 11               20131207201312072014120820151207             00000054850                                                                                         
DTE011009500000000006530201301009500009100035300035300000004                   00000000000                              JOSE BARBOSA DE CARVALHO      000000000000000000000000000000000000000000000000000RUA VOLTA REDONDA 163 .                      00000               JD V ALEGRE                   EMBU                          SP06807080                                        PF000000695067877000000000000000               00000025680000002392000000017600000009172406UPSAI                    UPSAI               2100030        TRANSFORMADOR VOLTAGEM AT2000                     20131203201312032014060420151203             00000015900                                                                                         
DTE011009500000000006530201301009500009100004800004800000040                   00000000000                              EMERSON ALMEIDA GOMES         000000000000000000000000000000000000000000000000000RUA JOAQUIM AFONSO DE SOUZA 123 A            00000               VL CELESTE                    SAO PAULO                     SP02543000                                        PF000022076908811000000000000000               00000025680000002392000000017600000009172412B & D                    B & D               0610368        FUR IMP 1/2 HD560K OFICINA 110V VVR               20131204201312042014120520151204             00000019990                                                                                         
DTE011009500000000006530201301009500009100004800004800000041                   00000000000                              RAMON DE MEIRELES LUCENA ALVES000000000000000000000000000000000000000000000000000RUA BONIFACIO GOMES SIQUEIRA 02 bl f casa 13 00000               JD CAGUASSU                   SAO PAULO                     SP03906050                                        PF000040831530839000000000000000               00000017620000001641000000012100000006292412SKIL                     SKIL                6140039        FUR IMP 3/8 6554 JA 220V VVR                      20131205201312052014120620151205             00000012600                                                                                         
DTE011009500000000006530201301009500009100004800004800000042                   00000000000                              IRAIDES OLIVEIRA              000000000000000000000000000000000000000000000000000RUA TRAVESA VALTER AVANCINE 46 CASA          00000               GUIANAZES                     SAO PAULO                     SP08473460                                        PF000021477296808000000000000000               00000029170000002717000000020000000010412403TERRA                    TERRA               7060001        PULVERIZADOR TINTA TP350 W 110V                   20131205201312052014030620151205             00000023900                                                                                         
DTE011009500000000006530201301009500009100004800004800000043                   00000000000                              CARMO RIBEIRO CHAGAS          000000000000000000000000000000000000000000000000000RUA ANTONIO MARIANI 134                      00000               I PREVIDENCIA                 SAO PAULO                     SP05530000                                        PF000003603725891000000000000000               00000029170000002717000000020000000010412412MAKITA                   MAKITA              7318436        SERRA MARM 4100NH2Z SECO 220V                     20131206201312062014120720151206             00000022900                                                                                         
DTE011009500000000006530201301009500009100004800004800000044                   00000000000                              IONE PEREIRA DA SILVA         000000000000000000000000000000000000000000000000000RUA IRMA CAROLINA  358                       00000               BELEM                         SAO PAULO                     SP03058040                                        PF000004961333816000000000000000               00000029170000002717000000020000000010412403TERRA                    TERRA               7060001        PULVERIZADOR TINTA TP350 W 110V                   20131206201312062014030720151206             00000023900                                                                                         
DTE011009500000000006530201301009500009100004800004800000045                   00000000000                              RUBEM XAVIER DO NASCIMENTO    000000000000000000000000000000000000000000000000000RUA INACIO DE ALMEIDA ARRUDA 120 bl8 ap12    00000               VL PAZ                        SAO PAULO                     SP04777050                                        PF000038114780444000000000000000               00000035310000003288000000024300000012612406VONDER                   VONDER              1583837        MAQUINA SOLDA 150A TS-150 220V                    20131206201312062014060720151206             00000027900                                                                                         
DTE011009500000000006530201301009500009100004800004800000046                   00000000000                              JOSE JUSTINO DE SOUZA         000000000000000000000000000000000000000000000000000RUA MAGUARI 51                               00000               JD ALIANCA                    OSASCO                        SP06236850                                        PF000059675586591000000000000000               00000136840000012744000000094000000048852400STIHL                    STIHL               6800979        MOTOSSERRA 59CC 3,2KW GAS MS310 40C               20131207201312072013120820151207             00000176280                                                                                         
DTE011009500000000006530201301009500009100004800004800000047                   00000000000                              GLORIA CELESTE DOMINGUES PAQUE000000000000000000000000000000000000000000000000000RUA TAPIRAPUA 38                             00000               JD ICARA                      SAO PAULO                     SP04837220                                        PF000010466314892000000000000000               00000029170000002717000000020000000010412406SELAPLAST                SELAPLAST           4320024        SELADORA MESA 40CM C/TEMPORIZADOR                 20131209201312092014061020151209             00000021000                                                                                         
DTE011009500000000006530201301009500009100004800004800000048                   00000000000                              GLORIA CELESTE DOMINGUES PAQUE000000000000000000000000000000000000000000000000000RUA TAPIRAPUA 38                             00000               JD ICARA                      SAO PAULO                     SP04837220                                        PF000010466314892000000000000000               00000029170000002717000000020000000010412406SELAPLAST                SELAPLAST           4320024        SELADORA MESA 40CM C/TEMPORIZADOR                 20131209201312092014061020151209             00000021000                                                                                         
DTE011009500000000006530201301009500009100004800004800000049                   00000000000                              GLORIA CELESTE DOMINGUES PAQUE000000000000000000000000000000000000000000000000000RUA TAPIRAPUA 38                             00000               JD ICARA                      SAO PAULO                     SP04837220                                        PF000010466314892000000000000000               00000029170000002717000000020000000010412406SELAPLAST                SELAPLAST           4320024        SELADORA MESA 40CM C/TEMPORIZADOR                 20131209201312092014061020151209             00000021000                                                                                         
DTE011009500000000006530201301009500009100008500008500000005                   00000000000                              RODRIGO DE JESUS ARAUJO       000000000000000000000000000000000000000000000000000RUA JOAO DE PAULA FRANCO 609 .               00000               JD MARABA                     SAO PAULO                     SP04775050                                        PF000039216102810000000000000000               00000048490000004516000000033300000017312403BRACOL                   BRACOL              6860052        COMPR BRC 5,6X08L 1HP 110V S/ KIT                 20131202201312022014030320151202             00000034100                                                                                         
DTE011009500000000006530201301009500009100018100018100000005                   00000000000                              TCSA SERVICOS DE COMABATE A IN000000000000000000000000000000000000000000000000000RUA ALFERES MAGALHAES  238 sl12              00000               SANTANA                       SAO PAULO                     SP02034006                                        PJ014647443000183000000000000000               00000136840000012744000000094000000048852412SCHULZ                   SCHULZ              0401695        COMPR BRAVO CSL 10BR/100 MON 220V                 20131205201312052014120620151205             00000223900                                                                                         
DTE011009500000000006530201301009500009100035300035300000005                   00000000000                              MIRIAM BOSCO                  000000000000000000000000000000000000000000000000000RUA CORONEL PALIMERSIO DE REZENDE 85 .       00000               BUTANTA                       SAO PAULO                     SP05505010                                        PF000026220318820000000000000000               00000062700000005839000000043100000022382412TRAPP                    TRAPP               0520002        APARADOR C VIVA  HT500 110V                       20131203201312032014120420151203             00000044274                                                                                         
DTE011009500000000006530201301009500009100007700007700000005                   00000000000                              RUTE APARECIDA JURADO NAVAS   000000000000000000000000000000000000000000000000000RUA SANTA LUZIA 636 CASA                     00000               VL S LUZIA                    TABOAO DA SERRA               SP06754005                                        PF000009339210808000000000000000               00000079120000007368000000054400000028242412SCHULZ                   SCHULZ              0401968        COMPR PRAT AIR MON CSA 8,2/25-30 11               20131207201312072014120820151207             00000054850                                                                                         
DTE011009500000000006530201301009500009100004800004800000050                   00000000000                              ANTONIO DE JESUS SANTANA      000000000000000000000000000000000000000000000000000TRAV GOLFO DE BENGALA 35 CASA                00000               LIMOEIRO                      SAO PAULO                     SP00000000                                        PF000004644585874000000000000000               00000035310000003288000000024300000012612403TERRA                    TERRA               7060005        PULVERIZADOR TINTA TP900 W 220V                   20131210201312102014031120151210             00000029900                                                                                         
DTE011009500000000006530201301009500009100004800004800000051                   00000000000                              ALISSON DA SILVA RIBEIRO      000000000000000000000000000000000000000000000000000RUA NOSSA SENHORA DA BOA VIAGEM 704          00000               VL TANQUE                     SAO PAULO                     SP09781000                                        PF000031939648831000000000000000               00000035310000003288000000024300000012612403TERRA                    TERRA               7060005        PULVERIZADOR TINTA TP900 W 220V                   20131210201312102014031120151210             00000029900                                                                                         
DTE011009500000000006530201301009500009100004800004800000052                   00000000000                              GUTEMBERGH JOSE DA SILVA      000000000000000000000000000000000000000000000000000av.tres 19                                   00000               TRAQUILIDADE                  GUARULHOS                     SP07051230                                        PF000012904218890000000000000000               00000029170000002717000000020000000010412403TERRA                    TERRA               7060001        PULVERIZADOR TINTA TP350 W 110V                   20131210201312102014031120151210             00000023900                                                                                         
DTE011009500000000006530201301009500009100004800004800000053                   00000000000                              MILANEZ SERVICOS LTDA EPP     000000000000000000000000000000000000000000000000000RUA TABATINGUERA 140 20and cj 2004           00000               CENTRO                        SAO PAULO                     SP01020000                                        PJ009568442000103000000000000000               00000017620000001641000000012100000006292403BRACOL                   BRACOL              6860054        BOMBA PERIF BRB120 1/2CV MON BIV                  20131210201312102014031120151210             00000014400                                                                                         
DTE011009500000000006530201301009500009100004800004800000054                   00000000000                              PAULO ANDRESON RIBEIRO BANDEIR000000000000000000000000000000000000000000000000000ESTRADA DO M BOI MIRIM 9784                  00000               PRQ LAGO                      SAO PAULO                     SP04948030                                        PF000031698242875000000000000000               00000029170000002717000000020000000010412403TERRA                    TERRA               7060002        PULVERIZADOR TINTA TP350 W 220V                   20131210201312102014031120151210             00000023900                                                                                         
DTE011009500000000006530201301009500009100004800004800000055                   00000000000                              ADEMILTON DE SOLZA SANTANA    000000000000000000000000000000000000000000000000000RUA BENEDITO GUEDES DE OLIVEIRA 157          00000               VL PALMEIRAS                  SAO PAULO                     SP02727030                                        PF000001320956882000000000000000               00000035310000003288000000024300000012612403TERRA                    TERRA               7060005        PULVERIZADOR TINTA TP900 W 220V                   20131210201312102014031120151210             00000029900                                                                                         
DTE011009500000000006530201301009500009100004800004800000056                   00000000000                              GLAUBER DE OLIVEIRA DANTAS    000000000000000000000000000000000000000000000000000RUA CORREA  02                               00000               JD DA REPRESA                 SAO BERNARDO DO CAMPO         SP09847120                                        PF000031404345884000000000000000               00000035310000003288000000024300000012612403TERRA                    TERRA               7060005        PULVERIZADOR TINTA TP900 W 220V                   20131211201312112014031220151211             00000029900                                                                                         
DTE011009500000000006530201301009500009100004800004800000057                   00000000000                              MARIO TUON FILHO              000000000000000000000000000000000000000000000000000RUA SAO PAULO 404                            00000               JD SAO FRANCISCO              CAIEIRAS                      SP07770000                                        PF000000933571844000000000000000               00000029170000002717000000020000000010412412MAKITA                   MAKITA              7318436        SERRA MARM 4100NH2Z SECO 220V                     20131211201312112014121220151211             00000022900                                                                                         
DTE011009500000000006530201301009500009100004800004800000058                   00000000000                              HENRIQUE MARIO DOS SANTOS     000000000000000000000000000000000000000000000000000AVENIDA SANTA FE 181                         00000               REC REGINA                    FRANCISCO MORATO              SP07957020                                        PF000011332213863000000000000000               00000035310000003288000000024300000012612403TERRA                    TERRA               7060004        PULVERIZADOR TINTA TP900 W 110V                   20131212201312122014031320151212             00000029900                                                                                         
DTE011009500000000006530201301009500009100004800004800000059                   00000000000                              FABIANA MARIA DA SILVA        000000000000000000000000000000000000000000000000000RUA MALVABRANCA 250 APT 31B                  00000               JD PEDRA BRANCA               SAO PAULO                     SP08490750                                        PF000032111076813000000000000000               00000028320000002637000000019500000010113612SUPER TORK               SUPER TORK          7150010        BOMBA PERIF 1/2HP BP-612/1 BIV                    20131213201312132014121420161213             00000014990                                                                                         
DTE011009500000000006530201301009500009100035300035300000006                   00000000000                              MARCIO MATARESE SADER         000000000000000000000000000000000000000000000000000RUA LICIO MARCONDES DO AMARAL 172 BLA5 AP31  00000               VL PROGREDIOR                 SAO PAULO                     SP05616100                                        PF000005353616880000000000000000               00000028320000002637000000019500000010113606VONDER                   VONDER              1583852        MOTO ESMERIL 360W 220V ECCOFER                    20131203201312032014060420161203             00000010900                                                                                         
DTE011009500000000006530201301009500009100008500008500000006                   00000000000                              SERGIO LUIZ RUFINO            000000000000000000000000000000000000000000000000000RUA SEBASTIAO AMANCIO PINTO 126 .            00000               JD S LUIS                     SAO PAULO                     SP05813090                                        PF000076448770887000000000000000               00000046890000004367000000032200000016743612B & D                    B & D               0618063        PISTOLA PINT HVLP 1L 350W BDPH200B                20131202201312022014120320161202             00000022200                                                                                         
DTE011009500000000006530201301009500009100018100018100000006                   00000000000                              TCSA SERVICOS DE COMABATE A IN000000000000000000000000000000000000000000000000000RUA ALFERES MAGALHAES  238 sl12              00000               SANTANA                       SAO PAULO                     SP02034006                                        PJ014647443000183000000000000000               00000136840000012744000000094000000048852412SCHULZ                   SCHULZ              0401695        COMPR BRAVO CSL 10BR/100 MON 220V                 20131205201312052014120620151205             00000223900                                                                                         
DTE011009500000000006530201301009500009100007700007700000006                   00000000000                              E.R.B ROCHA CONSTRUCÕES E COM 000000000000000000000000000000000000000000000000000RUA ALBERTO ARRUDA FONTES 70 0               00000               JD MTE ALEGRE                 Sao Paulo                     SP05546200                                        PJ007674618000186000000000000000               00000062700000005839000000043100000022382412MAKITA                   MAKITA              7310307        SERRA CIRC 7.1/4 5007N 220V                       20131207201312072014120820151207             00000046600                                                                                         
DTE011009500000000006530201301009500009100004800004800000060                   00000000000                              MARIA CREUZIENE CHAVES        000000000000000000000000000000000000000000000000000RUA SERRA DE BRAGANÇA 855 apto 172 a         00000               TATUAPE                       SAO PAULO                     SP00000010                                        PF000013261854898000000000000000               00000136840000012744000000094000000048852403TOYAMA                   TOYAMA              6000044        MOTOSSERRA MT/TCS53 20 50CM                       20131213201312132014031420151213             00000072900                                                                                         
DTE011009500000000006530201301009500009100004800004800000061                   00000000000                              ALVINHO SAMESHIMA             000000000000000000000000000000000000000000000000000RUA INACIO LOBO DE ARAUJO 152                00000               JD ESMERALDA                  SAO PAULO                     SP00000000                                        PF000005298000800000000000000000               00000025680000002392000000017600000009172412B & D                    B & D               0618088        FUR IMP 1/2 OFICINA TM550KP 110V                  20131214201312142014121520151214             00000019900                                                                                         
DTE011009500000000006530201301009500009100004800004800000062                   00000000000                              MARIA APARECIDA MASSARIOLI DE 000000000000000000000000000000000000000000000000000RUA MARTINHO PRADO 127 apt 142               00000               B VISTA                       SAO PAULO                     SP01306040                                        PF000015238614870000000000000000               00000079120000007368000000054400000028242412TRAPP                    TRAPP               0521047        MAQ GRAMA ELET 1050W TS70E MONO 220               20131214201312142014121520151214             00000052900                                                                                         
DTE011009500000000006530201301009500009100004800004800000063                   00000000000                              VALDIR VICENTE FERREIRA       000000000000000000000000000000000000000000000000000ANDRE BOTI 45 CASA                           00000               JAGUARE                       SAO PAULO                     SP00000000                                        PF000002212045476000000000000000               00000035310000003288000000024300000012612403TERRA                    TERRA               7060005        PULVERIZADOR TINTA TP900 W 220V                   20131216201312162014031720151216             00000029900                                                                                         
DTE011009500000000006530201301009500009100004800004800000064                   00000000000                              CARLOS MENEZES SANTOS JUNIOR  000000000000000000000000000000000000000000000000000RUA FLAVIO NOBRE DE CAMPOS 172               00000               PRQ M HELENA                  SAO PAULO                     SP05854120                                        PF000033727460822000000000000000               00000035310000003288000000024300000012612412BOSCH                    BOSCH               1160318        LIX EXC ELET GEX125-1AE 1387 5E0 22               20131216201312162014121720151216             00000029900                                                                                         
DTE011009500000000006530201301009500009100004800004800000065                   00000000000                              FRANCISCO APARECIDO MORAES    000000000000000000000000000000000000000000000000000RUA ALFREDO DINIZ 183                        00000               VILA ARQUIMEDES               POA                           SP00000000                                        PF000080509029868000000000000000               00000029170000002717000000020000000010412403TERRA                    TERRA               7060001        PULVERIZADOR TINTA TP350 W 110V                   20131217201312172014031820151217             00000023900                                                                                         
DTE011009500000000006530201301009500009100004800004800000066                   00000000000                              MARIA LUCIA GOUVEA DE ANDRADE 000000000000000000000000000000000000000000000000000RUA ARCANGELO ARCHINA 499                    00000               C S MATEUS                    SAO PAULO                     SP03960010                                        PF000084381191820000000000000000               00000025680000002392000000017600000009172412B & D                    B & D               0618088        FUR IMP 1/2 OFICINA TM550KP 110V                  20131218201312182014121920151218             00000019900                                                                                         
DTE011009500000000006530201301009500009100004800004800000067                   00000000000                              MARCIA VASQUES                000000000000000000000000000000000000000000000000000RUA RAIMUNDO DA COSTA E SILVA 41 CASA        00000               VL PICININ                    SAO PAULO                     SP02930060                                        PF000018546840865000000000000000               00000046890000004367000000032200000016743603TERRA                    TERRA               7060001        PULVERIZADOR TINTA TP350 W 110V                   20131218201312182014031920161218             00000023900                                                                                         
DTE011009500000000006530201301009500009100004800004800000068                   00000000000                              JOAO DEUSEMAR DA COSTA        000000000000000000000000000000000000000000000000000CARAMURU 768 COMERCIO                        00000               PRAÇA DA ARVORE               SAO PAULO                     SP04138002                                        PF000096583932768000000000000000               00000048490000004516000000033300000017312412B & D                    B & D               0618064        PISTOLA PINT HVLP 1L 390W BDPH400 1               20131218201312182014121920151218             00000031800                                                                                         
DTE011009500000000006530201301009500009100004800004800000069                   00000000000                              HENRIQUE MALDONADO PLATON     000000000000000000000000000000000000000000000000000VIELA TANQUINHO 88                           00000               JD PRES DUTRA                 GUARULHOS                     SP07172390                                        PF000023243331803000000000000000               00000029170000002717000000020000000010412403TERRA                    TERRA               7060002        PULVERIZADOR TINTA TP350 W 220V                   20131218201312182014031920151218             00000023900                                                                                         
DTE011009500000000006530201301009500009100008500008500000007                   00000000000                              SERGIO DOS REIS SILVA         000000000000000000000000000000000000000000000000000AVENIDA NOVE DE JULHO 229 .                  00000               JD ITAPEVI                    ITAPEVI                       SP06653150                                        PF000009655910857000000000000000               00000046890000004367000000032200000016743606SELAPLAST                SELAPLAST           4320024        SELADORA MESA 40CM C/TEMPORIZADOR                 20131202201312022014060320161202             00000021000                                                                                         
DTE011009500000000006530201301009500009100035300035300000007                   00000000000                              MIRIAM BOSCO                  000000000000000000000000000000000000000000000000000RUA CORONEL PALIMERSIO DE REZENDE 85 .       00000               BUTANTA                       SAO PAULO                     SP05505010                                        PF000026220318820000000000000000               00000062700000005839000000043100000022382412TRAPP                    TRAPP               0520002        APARADOR C VIVA  HT500 110V                       20131204201312042014120520151204             00000044274                                                                                         
DTE011009500000000006530201301009500009100036400036400000007                   00000000000                              LUIS CARLOS   ALMEIDA ARAUJO  000000000000000000000000000000000000000000000000000R MESTRE PESSOA 1186                         00000               JD PAULISTA                   BERTIOGA                      SP11250000                                        PF000068701810391000000000000000               00000029170000002717000000020000000010412412B & D                    B & D               0618047        FUR PAR BAT 12V  C/AC CD121K50 BIV                20131202201312022014120320151202             00000020900                                                                                         
DTE011009500000000006530201301009500009100007700007700000007                   00000000000                              JOSE ROBERTO SANTOS           000000000000000000000000000000000000000000000000000RUA JOÃO RODRIGUES DE MORAES 58 0            00000               JD LAGOA                      Itapecerica da Serra          SP00000000                                        PF000027965793873000000000000000               00000062700000005839000000043100000022382403BRACOL                   BRACOL              6860051        COMPR BRC 8,8X24/25L 2HP BIVOL C/KI               20131209201312092014031020151209             00000042400                                                                                         
DTE011009500000000006530201301009500009100004800004800000070                   00000000000                              JOSE RAMALHO SILVA            000000000000000000000000000000000000000000000000000RUA CONSOLACAO, DA 2779 AP TERRIO            00000               C CESAR                       SAO PAULO                     SP01416001                                        PF000001196143838000000000000000               00000019030000001772000000013100000006793606VONDER                   VONDER              1583851        MOTO ESMERIL 360W 110V ECCOFER                    20131219201312192014062020161219             00000009990                                                                                         
