HDR0205000320140106164902SG                                                                                                                                                                                                                                                                                                                                                                                                                                                                                                                                                                                                                                                                                                                       
DTE011009500000000006530201301009500009100035400035400000001                   00000000000                              JOSE EDILSON DE PINHO MELO    000000000000000000000000000000000000000000000000000RUA MAFRENS 39 .                             00000               JD PRAINHA                    Sao Paulo                     SP04851713                                        PF000053271459304000000000000000               00000127150000011841000000087400000045393612BOSCH                    BOSCH               1160392        MART PERF/RP GBH2-24DF C/MAN 1E0 22               20131122201311222014112320161122             00000055400                                                                                         
DTE011009500000000006530201301009500009100053500053500000001                   00000000000                              CARLOS ALBERTO ESPERANÇA      000000000000000000000000000000000000000000000000000RUA PEDRO SALINAS 53 ,                       00000               CH N S APARECIDA              Sao Paulo                     SP02963070                                        PF000005514932834000000000000000               00000041250000003842000000028300000014733612B & D                    B & D               0610296        LIX ORBITAL QS800 220V 180W                       20131127201311272014112820161127             00000019900                                                                                         
DTE011009500000000006530201301009500009100064600064600000001                   00000000000                              RAFAEL PAULO GOMES DA SILVA   000000000000000000000000000000000000000000000000000RUA PALMEIRA REAL 31 CASA                    00000               JD IPES                       SAO PAULO                     SP08161390                                        PF000042262123802000000000000000               00000062700000005839000000043100000022382412B & D                    B & D               0610312        AUX PART 450A 12/BIVOLT VEC012BD                  20131123201311232014112420151123             00000042600                                                                                         
DTE011009500000000006530201301009500009100094300094300000001                   00000000000                              JOSE CARLOS DO SANTOS         000000000000000000000000000000000000000000000000000RUA DONA ISAURA 246 0                        00000               JD Q CENTENARIO (JD P DUTRA)  GUARULHOS                     SP07161570                                        PF000034564772449000000000000000               00000025680000002392000000017600000009172412B & D                    B & D               0617966        ESM ANG 4.1/2 SET CORT G900K BR110V               20131128201311282014112920151128             00000018900                                                                                         
DTE011009500000000006530201301009500009100007700007700000001                   00000000000                              REJANE GOMES SOBRINHO PORTUGAL000000000000000000000000000000000000000000000000000ALAMEDA POLIMIA 46                           00000               COND IOLANDA                  TABOAO DA SERRA               SP06794080                                        PF000011375074890000000000000000               00000029170000002717000000020000000010412412TRAPP                    TRAPP               0520028        APARADOR FIO NYLON M1000 220V PLUS                20131125201311252014112620151125             00000023200                                                                                         
DTE011009500000000006530201301009500009100008500008500000001                   00000000000                              MATHEUS SEGARA                000000000000000000000000000000000000000000000000000TRAVESSA ITAUNA 40 .                         00000               JD UTINGA                     SANTO ANDRE                   SP09080210                                        PF000029451600809000000000000000               00000219950000020483000000151200000078523606BRANCO                   BRANCO              1480120        PERF SOLO BPS52 90314500                          20131125201311252014052620161125             00000099900                                                                                         
DTE011009500000000006530201301009500009100018100018100000001                   00000000000                              EUSTAQUIO IBRAIM DE CARVALHO  000000000000000000000000000000000000000000000000000rua professor sutan jaber 481                00000               DISTRITO INDUSTRIAL           DIVINOPOLIS                   MG35502281                                        PF000051086093615000000000000000               00000136840000012744000000094000000048852412BOSCH                    BOSCH               1160367        NIVEL LASER GLL3-80P C/ TRIPE BS150               20131129201311292014113020151129             00000235400                                                                                         
DTE011009500000000006530201301009500009100031600031600000001                   00000000000                              ELIZABETH DE MORAES GOMES CAET000000000000000000000000000000000000000000000000000RUA EDUARDO AMBUBA 95 AP 24                  00000               VL ANDRADE                    SAO PAULO                     SP05725050                                        PF000003166054847000000000000000               00000035310000003288000000024300000012612403TERRA                    TERRA               7060004        PULVERIZADOR TINTA TP900 W 110V                   20131125201311252014022620151125             00000028900                                                                                         
DTE011009500000000006530201301009500009100004800004800000001                   00000000000                              JOÃO LOURENÇO MAFRA           000000000000000000000000000000000000000000000000000RUA RODOLPHO BARBOSA DE CASTRO 31 casa a     00000               PRQ GUARANI                   SAO PAULO                     SP08235420                                        PF000051276208472000000000000000               00000035310000003288000000024300000012612403TERRA                    TERRA               7060004        PULVERIZADOR TINTA TP900 W 110V                   20131123201311232014022420151123             00000028900                                                                                         
DTE011009500000000006530201301009500009100002800002800000001                   00000000000                              ADRIANO ALVES DE ALVARENGA    000000000000000000000000000000000000000000000000000RUA HERCILIA ROSSI 55 CASA                   00000               VL SUISSA                     SAO PAULO                     SP08810150                                        PF000028058442895000000000000000               00000025680000002392000000017600000009172412B & D                    B & D               0610367        FUR IMP 1/2 HD560K OFICINA 220V                   20131123201311232014112420151123             00000019990                                                                                         
DTE011009500000000006530201301009500009100035300035300000001                   00000000000                              HELIO ADRIANO                 000000000000000000000000000000000000000000000000000RUA OSCAR CINTRA GORDINHO 85 AP43            00000               LIBERDADE                     SAO PAULO                     SP01512010                                        PF000001327334801000000000000000               00000041250000003842000000028300000014733612BOSCH                    BOSCH               1160052        SERRA CIRC MARM GDC12-34 C/DISCO 22               20131123201311232014112420161123             00000019990                                                                                         
DTE011009500000000006530201301009500009100036400036400000001                   00000000000                              VALCEMIR APARECIDO DE SOUZA   000000000000000000000000000000000000000000000000000RUA AMERICO EGIDIO  35 ,                     00000               VL VERDE                      SAO JOSE DO RIO PARDO         SP13720000                                        PF000035349339826000000000000000               00000136840000012744000000094000000048852412V8 BRASIL                V8 BRASIL           7330037        MAQ SOLDA TIG MMA 240 200AMP 105446               20131123201311232014112420151123             00000159900                                                                                         
DTE011009500000000006530201301009500009100049700049700000001                   00000000000                              MIRAILTON LIMA SOUSA          000000000000000000000000000000000000000000000000000RUA MUNICIPAL 37 F                           00000               JD MYRNA                      SAO PAULO                     SP04856080                                        PF000007985200860000000000000000               00000062700000005839000000043100000022382412BOSCH                    BOSCH               1160391        MART PERF/ROMP GBH2-24D PROF 2E0 22               20131125201311252014112620151125             00000046900                                                                                         
DTE011009500000000006530201301009500009100087400087400000010                   00000000000                              MARIA DE FATIMA TEIXEIRA COSTA000000000000000000000000000000000000000000000000000RUA JOAQUIM GUTIERRES 1 .                    00000               VL ALIANCA                    OSASCO                        SP06060080                                        PF000008745976848000000000000000               00000077950000007259000000053600000027833612B & D                    B & D               0618064        PISTOLA PINT HVLP 1L 390W BDPH400 1               20131127201311272014112820161127             00000031800                                                                                         
DTE011009500000000006530201301009500009100049700049700000010                   00000000000                              FERNANDO TAVARES DA SILVA     000000000000000000000000000000000000000000000000000RUA REJENTE FEIJO 94 0                       00000               CENTRO                        DIADEMA                       SP09910770                                        PF000005330245877000000000000000               00000079120000007368000000054400000028242412KARCHER                  KARCHER             4330150        LAV AP K3.390M C/ENROLADOR 110V                   20131128201311282014112920151128             00000059900                                                                                         
DTE011009500000000006530201301009500009100004800004800000010                   00000000000                              RITA DE CASSIA SEIXAS SAMPAIO 000000000000000000000000000000000000000000000000000RUA DOUTOR JOAO PASSOS 73                    00000               VL A BRASILEIRA               SAO PAULO                     SP05030080                                        PF000001687023808000000000000000               00000079120000007368000000054400000028242400STIHL                    STIHL               6801086        MOTOSSERRA 31CC 1,5KW GAS MS180 30C               20131126201311262013112720151126             00000069900                                                                                         
DTE011009500000000006530201301009500009100004800004800000011                   00000000000                              RITA DE CASSIA SEIXAS SAMPAIO 000000000000000000000000000000000000000000000000000RUA DOUTOR JOAO PASSOS 73                    00000               VL A BRASILEIRA               SAO PAULO                     SP05030080                                        PF000001687023808000000000000000               00000136840000012744000000094000000048852406BRANCO                   BRANCO              1480082        MOTOBOMBA GAS B4T705L  A/E 3"                     20131126201311262014052720151126             00000139900                                                                                         
DTE011009500000000006530201301009500009100087400087400000011                   00000000000                              CRIVANIR APARECIDA DE SOUZA   000000000000000000000000000000000000000000000000000RUA GOIABEIRA 76                             00000               VILA PESTANA                  Osasco                        SP06180800                                        PF000021317466870000000000000000               00000019030000001772000000013100000006793603BRACOL                   BRACOL              6860013        MACACO JACARE 2T MAL BRMS-2M 24                   20131127201311272014022820161127             00000008900                                                                                         
DTE011009500000000006530201301009500009100087400087400000012                   00000000000                              ROSILENE DE JESUS MIRANDA     000000000000000000000000000000000000000000000000000RUA IGARAPAVA 230 AP 44                      00000               CJ HAB PRES C BRANCO          CARAPICUIBA                   SP06328060                                        PF000014409971875000000000000000               00000048490000004516000000033300000017312412SCHULZ                   SCHULZ              0402010        COMPR JET FACIL 40LB BIVOLT                       20131127201311272014112820151127             00000034300                                                                                         
DTE011009500000000006530201301009500009100004800004800000012                   00000000000                              FATIMA APARECIDA BERGAMASCO SA000000000000000000000000000000000000000000000000000RUA VIRGILIO RONCON 309 CS                   00000               VL GUERDA                     RIBEIRAO PIRES                SP09406400                                        PF000018019047824000000000000000               00000035310000003288000000024300000012612403TERRA                    TERRA               7060004        PULVERIZADOR TINTA TP900 W 110V                   20131126201311262014022720151126             00000028900                                                                                         
DTE011009500000000006530201301009500009100004800004800000013                   00000000000                              JESUINO ROCHA DO NASCIMENTO   000000000000000000000000000000000000000000000000000RUA TRINTA E SETE 83 CS 02                   00000               JD VASSOURAS                  FRANCISCO MORATO              SP07952160                                        PF000015374972863000000000000000               00000029170000002717000000020000000010412412MAKITA                   MAKITA              7318384        SERRA MARM 4100NH2Z SECO 110V                     20131126201311262014112720151126             00000022900                                                                                         
DTE011009500000000006530201301009500009100087400087400000013                   00000000000                              ISRAEL MUNIZ FILHO            000000000000000000000000000000000000000000000000000RUA MARIA THEREZINHA BONILHA 108 .           00000               JD N OSASCO                   OSASCO                        SP06142180                                        PF000038908832904000000000000000               00000017620000001641000000012100000006292412B & D                    B & D               0617862        ESM ANG 4.1/2 800W G720-BR  110V                  20131128201311282014112920151128             00000013990                                                                                         
DTE011009500000000006530201301009500009100004800004800000014                   00000000000                              JULIO JOSE ALVES DE AMORIM    000000000000000000000000000000000000000000000000000RUA MARIA ELANE PEREIRA 164 CS               00000               JD SILVA                      FRANCISCO MORATO              SP07920051                                        PF000065781066853000000000000000               00000035310000003288000000024300000012612403TERRA                    TERRA               7060004        PULVERIZADOR TINTA TP900 W 110V                   20131126201311262014022720151126             00000028900                                                                                         
DTE011009500000000006530201301009500009100087400087400000014                   00000000000                              DIONISIO PASSOS REBOUCAS      000000000000000000000000000000000000000000000000000RUA DOUTOR JOSE BENEDITO DE MORAES LEMO 138 000000               JAGUARE                       SAO PAULO                     SP05333060                                        PF000015372687835000000000000000               00000025680000002392000000017600000009172403BRACOL                   BRACOL              6860029        LAV AP BRL 1500 220V 389                          20131130201311302014030120151130             00000019900                                                                                         
DTE011009500000000006530201301009500009100004800004800000015                   00000000000                              ILSON JACINTO DE OLIVEIRA     000000000000000000000000000000000000000000000000000RUA MANUEL MENDES RIBEIRO 213 SOBRADO        00000               VL B AIRES                    SAO PAULO                     SP03737030                                        PF000000647589826000000000000000               00000056760000005286000000039000000020263603TERRA                    TERRA               7060004        PULVERIZADOR TINTA TP900 W 110V                   20131126201311262014022720161126             00000028900                                                                                         
DTE011009500000000006530201301009500009100004800004800000016                   00000000000                              RIK NELSON DA SILVA GUANAES CO000000000000000000000000000000000000000000000000000RUA MORUBIXABA 712 APT 62 BLC A              00000               C LIDER                       SAO PAULO                     SP08280630                                        PF000008519715800000000000000000               00000035310000003288000000024300000012612403TERRA                    TERRA               7060004        PULVERIZADOR TINTA TP900 W 110V                   20131127201311272014022820151127             00000028900                                                                                         
DTE011009500000000006530201301009500009100004800004800000017                   00000000000                              LUIZ CARDOSO DA COSTA         000000000000000000000000000000000000000000000000000RUA NHANDIOBA  140                           00000               ORIENTAL                      SAO PAULO                     SP00000000                                        PF000064376273872000000000000000               00000035310000003288000000024300000012612403TERRA                    TERRA               7060005        PULVERIZADOR TINTA TP900 W 220V                   20131127201311272014022820151127             00000028900                                                                                         
DTE011009500000000006530201301009500009100004800004800000018                   00000000000                              EDGARD ROGERIO PEREIRA DE ANDR000000000000000000000000000000000000000000000000000RUA LUIZ DA CRUZ 59                          00000               JD N POA                      POA                           SP08568620                                        PF000004786540811000000000000000               00000025680000002392000000017600000009172412B & D                    B & D               0617965        ESM ANG 4.1/2 SET CORT G900K B2 220               20131127201311272014112820151127             00000018900                                                                                         
DTE011009500000000006530201301009500009100004800004800000019                   00000000000                              ALEXANDRE MAGONO PINTO DE CARV000000000000000000000000000000000000000000000000000AVENIDA BRIGADEIRO FARIA LIMA 1572           00000               JD PAULISTANO                 SAO PAULO                     SP01451001                                        PF000014807282840000000000000000               00000136840000012744000000094000000048852406BRANCO                   BRANCO              1480120        PERF SOLO BPS52 90314500                          20131127201311272014052820151127             00000099900                                                                                         
DTE011009500000000006530201301009500009100035400035400000002                   00000000000                              JOSE EDILSON DE PINHO MELO    000000000000000000000000000000000000000000000000000RUA MAFRENS 39 .                             00000               JD PRAINHA                    Sao Paulo                     SP04851713                                        PF000053271459304000000000000000               00000056760000005286000000039000000020263612BOSCH                    BOSCH               1160017        ESM ANG 4.1/2 GWS8-115 1820 0E0 220               20131122201311222014112320161122             00000028490                                                                                         
DTE011009500000000006530201301009500009100064600064600000002                   00000000000                              JOSÉ ONOFRE DA SILVA          000000000000000000000000000000000000000000000000000RUA ITAJUIBE 1051 CASA                       00000               JD NELIA                      Sao Paulo                     SP08142000                                        PF000005065335818000000000000000               00000011840000001103000000008100000004232406VONDER                   VONDER              1583852        MOTO ESMERIL 360W 220V ECCOFER                    20131123201311232014052420151123             00000009990                                                                                         
DTE011009500000000006530201301009500009100008500008500000002                   00000000000                              JOSE RENATO CAMURÇA           000000000000000000000000000000000000000000000000000TRAVESSA ISABELA LEONARDA 6 .                00000               C V ALTA                      SAO PAULO                     SP02545120                                        PF000014160474845000000000000000               00000136840000012744000000094000000048852400STIHL                    STIHL               6800984        ROCAD GAS 1,9CV DM 300 3F FS 160 00               20131125201311252013112620151125             00000150900                                                                                         
DTE011009500000000006530201301009500009100049700049700000002                   00000000000                              JOAO AUGUSTO BULHOES DA SILVA 000000000000000000000000000000000000000000000000000AVENIDA DOUTOR ULYSSES GUIMARAES 413 0       00000               VL NOGUEIRA                   DIADEMA                       SP09990080                                        PF000024779783810000000000000000               00000029170000002717000000020000000010412412MAKITA                   MAKITA              7318384        SERRA MARM 4100NH2Z SECO 110V                     20131126201311262014112720151126             00000022900                                                                                         
DTE011009500000000006530201301009500009100087400087400000002                   00000000000                              JAMIRO DEPIZZOLI              000000000000000000000000000000000000000000000000000RUA RODOLFO CHAMPARINE 179 0                 00000               PRQ S TERESA                  CARAPICUIBA                   SP06340220                                        PF000027787842920000000000000000               00000011840000001103000000008100000004232406VONDER                   VONDER              1583852        MOTO ESMERIL 360W 220V ECCOFER                    20131123201311232014052420151123             00000009990                                                                                         
DTE011009500000000006530201301009500009100036400036400000002                   00000000000                              JULIANA FERREIRA DOS SANTOS   000000000000000000000000000000000000000000000000000RUA VENANCIO VINICIUS JUNQUEIRA 334 .        00000               JD JARAGUA                    SAO PAULO                     SP05160000                                        PJ016761816000178000000000000000               00000079120000007368000000054400000028242412MAKITA                   MAKITA              7318435        MART SDS PLUS HR2475 C/MAL 220V                   20131123201311232014112420151123             00000059900                                                                                         
DTE011009500000000006530201301009500009100002800002800000002                   00000000000                              MARCELO ALVES MORGADO         000000000000000000000000000000000000000000000000000RUA VINTE E SEIS DE OUTUBRO 03 ALMIR MARIATH 00000               HELIOPOLES                    SAO PAULO                     SP04218040                                        PF000029894308813000000000000000               00000048490000004516000000033300000017312406VONDER                   VONDER              1583836        MAQUINA SOLDA 250A TS-250                         20131125201311252014052620151125             00000032900                                                                                         
DTE011009500000000006530201301009500009100035300035300000002                   00000000000                              ROSANA CONCEIÇÃO CARDOSO      000000000000000000000000000000000000000000000000000RUA EUZEBIO DE PAULA MARCONDES 1010 .        00000                ABRIL                        SAO PAULO                     SP05398020                                        PF000013645441808000000000000000               00000062700000005839000000043100000022382412MAKITA                   MAKITA              7318503        TUPIA 06 A 08MM RT0700C 220V                      20131123201311232014112420151123             00000044400                                                                                         
DTE011009500000000006530201301009500009100027100027100000002                   00000000000                              CLODOALDO FRADE               000000000000000000000000000000000000000000000000000RUA MARIA FETT 104                           00000               VL MERCEDES                   SAO PAULO                     SP03263000                                        PF000095095446804000000000000000               00000048490000004516000000033300000017312412BOSCH                    BOSCH               1160213        FUR PAR BAT 14,4V GSR2 1918 GD0 110               20131123201311232014112420151123             00000039990                                                                                         
DTE011009500000000006530201301009500009100031600031600000002                   00000000000                              UDIRLEI CUTRIN DE SOUSA       000000000000000000000000000000000000000000000000000RUA RIO DA FRONTEIRA 15 A                    00000               JD RINCAO                     SAO PAULO                     SP02991210                                        PF000028195733808000000000000000               00000035310000003288000000024300000012612403TERRA                    TERRA               7060004        PULVERIZADOR TINTA TP900 W 110V                   20131125201311252014022620151125             00000028900                                                                                         
DTE011009500000000006530201301009500009100004800004800000002                   00000000000                              EDISON OLIVEIRA SILVA         000000000000000000000000000000000000000000000000000RUA ASTOLPHINA DUARTE DO PATEO 10 CASA       00000               JD UMARIZAL                   SAO PAULO                     SP05756200                                        PF000007342234800000000000000000               00000029170000002717000000020000000010412403TERRA                    TERRA               7060001        PULVERIZADOR TINTA TP350 W 110V                   20131123201311232014022420151123             00000022900                                                                                         
DTE011009500000000006530201301009500009100004800004800000020                   00000000000                              SMC PEREIRA EPP               000000000000000000000000000000000000000000000000000RUA FABIO LUZ 33                             00000               PRQ LAGO                      SAO PAULO                     SP04945090                                        PJ018328544000142000000000000000               00000029170000002717000000020000000010412412MAKITA                   MAKITA              7318436        SERRA MARM 4100NH2Z SECO 220V                     20131128201311282014112920151128             00000022900                                                                                         
DTE011009500000000006530201301009500009100004800004800000021                   00000000000                              EDSON GONÇALVES ROCHA         000000000000000000000000000000000000000000000000000RUA BOA VISTA DO TUPIM 54 CS                 00000               JD CENTENARIO                 GUARULHOS                     SP07270070                                        PF000014099614867000000000000000               00000035310000003288000000024300000012612403TERRA                    TERRA               7060005        PULVERIZADOR TINTA TP900 W 220V                   20131128201311282014030120151128             00000028900                                                                                         
DTE011009500000000006530201301009500009100004800004800000022                   00000000000                              JOSE CARLOS LIMA HAINE        000000000000000000000000000000000000000000000000000RUA DOUTOR ZUQUIM 76 apt 01                  00000               SANTANA                       SAO PAULO                     SP02035020                                        PF000004253476805000000000000000               00000035310000003288000000024300000012612412MAKITA                   MAKITA              7310997        TUPIA 3709 220V                                   20131128201311282014112920151128             00000028900                                                                                         
DTE011009500000000006530201301009500009100004800004800000023                   00000000000                              CLEONICE NEVES DA ROCHA SIMOES000000000000000000000000000000000000000000000000000PRACA PEDRO JOAQUIN DE SOUZA 23              00000               CENTRO                        GRAVATA                       PE55641020                                        PF000066384141787000000000000000               00000025680000002392000000017600000009172412B & D                    B & D               0618067        PISTOLA PINT HVLP 1L 278W BDPH200B                20131129201311292014113020151129             00000019900                                                                                         
DTE011009500000000006530201301009500009100004800004800000024                   00000000000                              ANTONIO MIGUEL DA SILVA       000000000000000000000000000000000000000000000000000RUA PADRE JOAO TENORIO 13 A                  00000               CENTRO                        PANELAS                       PE55470000                                        PF000081540230830000000000000000               00000029170000002717000000020000000010412403TERRA                    TERRA               7060002        PULVERIZADOR TINTA TP350 W 220V                   20131129201311292014030120151129             00000022900                                                                                         
DTE011009500000000006530201301009500009100004800004800000025                   00000000000                              GUILHERME TIEPOLO MAZZOLI     000000000000000000000000000000000000000000000000000RUA SAO JOSE DO BARREIRO 204                 00000               A RASA                        SAO PAULO                     SP03179050                                        PF000035876919837000000000000000               00000025680000002392000000017600000009172412B & D                    B & D               0618063        PISTOLA PINT HVLP 1L 350W BDPH200B                20131129201311292014113020151129             00000019900                                                                                         
DTE011009500000000006530201301009500009100004800004800000026                   00000000000                              MAICON SILVA BARBOSA          000000000000000000000000000000000000000000000000000RUA QUINZE  312                              00000               JD MORUMBI                    FRANCISCO MORATO              SP00000001                                        PF000033528309830000000000000000               00000056760000005286000000039000000020263603BRACOL                   BRACOL              6860055        BOMBA PERIF BRB1000 1CV MON BIV                   20131129201311292014030120161129             00000026900                                                                                         
DTE011009500000000006530201301009500009100004800004800000027                   00000000000                              MAICON SILVA BARBOSA          000000000000000000000000000000000000000000000000000RUA QUINZE  312                              00000               JD MORUMBI                    FRANCISCO MORATO              SP00000001                                        PF000033528309830000000000000000               00000028320000002637000000019500000010113603BRACOL                   BRACOL              6860054        BOMBA PERIF BRB120 1/2CV MON BIV                  20131129201311292014030120161129             00000014400                                                                                         
DTE011009500000000006530201301009500009100004800004800000028                   00000000000                              MAICON SILVA BARBOSA          000000000000000000000000000000000000000000000000000RUA QUINZE  312                              00000               JD MORUMBI                    FRANCISCO MORATO              SP00000001                                        PF000033528309830000000000000000               00000028320000002637000000019500000010113606FORCE LINE               FORCE LINE          7160005        TRANSFORMADOR VOLTAGEM 1500VA BIV 2               20131129201311292014053020161129             00000011690                                                                                         
DTE011009500000000006530201301009500009100004800004800000029                   00000000000                              MILTON DE OLIVEIRA VILCHES    000000000000000000000000000000000000000000000000000RUA WALDEMAR ADELINO DA SILVA 73             00000               M VELHO                       SAO PAULO                     SP02929020                                        PF000040234789891000000000000000               00000077950000007259000000053600000027833612MAKITA                   MAKITA              7318500        FUR/PAR IMP BAT 12,0V LI HP330DWE 1               20131129201311292014113020161129             00000038900                                                                                         
DTE011009500000000006530201301009500009100004800004800000003                   00000000000                              ROBERTO GOMES DA SILVA        000000000000000000000000000000000000000000000000000RUA JERONIMO GUIMARAES 30 CASA               00000               JD PIQUEROBY                  SAO PAULO                     SP03463030                                        PF000008630927801000000000000000               00000035310000003288000000024300000012612403TERRA                    TERRA               7060004        PULVERIZADOR TINTA TP900 W 110V                   20131123201311232014022420151123             00000028900                                                                                         
DTE011009500000000006530201301009500009100031600031600000003                   00000000000                              CELSO PEREIRRA DA COSTA       000000000000000000000000000000000000000000000000000AVENIDA FERNANDO ARENS 748                   00000               VL ARENS                      JUNDIAI                       SP13202570                                        PF000034099538842000000000000000               00000025680000002392000000017600000009172403VONDER                   VONDER              1583985        MICRO RETIF ECCOFER AR172 172AC 220               20131125201311252014022620151125             00000015990                                                                                         
DTE011009500000000006530201301009500009100002800002800000003                   00000000000                              SONIA ALVES DA CUNHA          000000000000000000000000000000000000000000000000000RUA GELASIO PIMENTA 107 CASA                 00000               VL ANTONINA                   SAO PAULO                     SP03412000                                        PF000010614408857000000000000000               00000136840000012744000000094000000048852400STIHL                    STIHL               6800982        ROCAD GAS 1,3CV GSB 230 FS 80 0249                20131125201311252013112620151125             00000084500                                                                                         
DTE011009500000000006530201301009500009100036400036400000003                   00000000000                              CLEBERTON DE SOUSA SILVA      000000000000000000000000000000000000000000000000000RUA PRUDENTE CORREA 255 .                    00000               JD EUROPA                     SAO PAULO                     SP01450030                                        PF000040041818873000000000000000               00000025680000002392000000017600000009172406GARTHEN                  GARTHEN             1780453        BOMBA PERIF ICS 50A 1/2CV MONO 220V               20131123201311232014052420151123             00000017900                                                                                         
DTE011009500000000006530201301009500009100087400087400000003                   00000000000                              IRINEU VENDRAMINI             000000000000000000000000000000000000000000000000000RUA JOSE ANACLETO DA SILVA 685 .             00000               VL AYROSA                     OSASCO                        SP06280110                                        PF000016982886891000000000000000               00000079120000007368000000054400000028242403BRACOL                   BRACOL              6860062        COMPR BRC 8,8X50L 2HP BIVOL C/KIT20               20131123201311232014022420151123             00000063900                                                                                         
DTE011009500000000006530201301009500009100018100018100000003                   00000000000                              SALES ASSESSORIA S.E.P.CONSERV000000000000000000000000000000000000000000000000000RUA MARCILIO MARTINS  72                     00000               VL MARTINS                    Carapicuiba                   SP06315120                                        PJ004082454000100000000000000000               00000219950000020483000000151200000078523600STIHL                    STIHL               6800984        ROCAD GAS 1,9CV DM 300 3F FS 160 00               20131129201311292013113020161129             00000150900                                                                                         
DTE011009500000000006530201301009500009100018100018100000004                   00000000000                              SALES ASSESSORIA S.E.P.CONSERV000000000000000000000000000000000000000000000000000RUA MARCILIO MARTINS  72                     00000               VL MARTINS                    Carapicuiba                   SP06315120                                        PJ004082454000100000000000000000               00000219950000020483000000151200000078523600STIHL                    STIHL               6800984        ROCAD GAS 1,9CV DM 300 3F FS 160 00               20131129201311292013113020161129             00000150900                                                                                         
DTE011009500000000006530201301009500009100008500008500000003                   00000000000                              JOSE RENATO CAMURÇA           000000000000000000000000000000000000000000000000000TRAVESSA ISABELA LEONARDA 6 .                00000               C V ALTA                      SAO PAULO                     SP02545120                                        PF000014160474845000000000000000               00000136840000012744000000094000000048852400STIHL                    STIHL               6800977        MOTOSSERRA 35CC 1,6KW GAS MS210 30C               20131125201311252013112620151125             00000089900                                                                                         
DTE011009500000000006530201301009500009100064600064600000003                   00000000000                              FABIANO DE ANDRADE            000000000000000000000000000000000000000000000000000RUA ALARICO DE TOLEDO PIZA 493 CASA          00000               VL S TELES                    SAO PAULO                     SP08110180                                        PF000044000751840000000000000000               00000011840000001103000000008100000004232403BRACOL                   BRACOL              6860013        MACACO JACARE 2T MAL BRMS-2M 24                   20131123201311232014022420151123             00000008900                                                                                         
DTE011009500000000006530201301009500009100035400035400000003                   00000000000                              ALBERTO BELMINO DE SOUZA      000000000000000000000000000000000000000000000000000RUA MARIA ROSCHEL 86 ,                       00000               T D INTERLAGOS                SAO PAULO                     SP04809210                                        PF000033691156894000000000000000               00000127150000011841000000087400000045393612GARTHEN                  GARTHEN             1780044        SERRA RAP P/ALUM SCA100 S/M C/CH                  20131122201311222014112320161122             00000059900                                                                                         
DTE011009500000000006530201301009500009100049700049700000003                   00000000000                              JAIRO PEREIRA DA SILVA        000000000000000000000000000000000000000000000000000RUA VIEIRAS, DOS 136 .                       00000               JD UNIAO                      DIADEMA                       SP09981080                                        PF000002985889863000000000000000               00000017620000001641000000012100000006292412MAKITA                   MAKITA              7318389        PARAF BAT 4,8V 6723DW 110V                        20131126201311262014112720151126             00000012400                                                                                         
DTE011009500000000006530201301009500009100004800004800000030                   00000000000                              JEREMIAS REIS                 000000000000000000000000000000000000000000000000000av são joão  755 02 and                      00000               CENTRO                        SAO PAULO                     SP01035100                                        PF000096332360704000000000000000               00000017620000001641000000012100000006292403BRACOL                   BRACOL              6860054        BOMBA PERIF BRB120 1/2CV MON BIV                  20131129201311292014030120151129             00000014400                                                                                         
DTE011009500000000006530201301009500009100004800004800000031                   00000000000                              FRANCISCO CENTKIEWICZ JUNIOR  000000000000000000000000000000000000000000000000000RUA HERAS, DAS 900                           00000               VL LUCIA                      Sao Paulo                     SP03144001                                        PF000023420871872000000000000000               00000136840000012744000000094000000048852406BEAVER                   BEAVER              1290029        ROCAD ELETR BEAVER LIGHT PROF 1HP 2               20131130201311302014053120151130             00000075000                                                                                         
DTE011009500000000006530201301009500009100004800004800000032                   00000000000                              MARCELO DE OLIVEIRA SANTOS    000000000000000000000000000000000000000000000000000RUA VIRGILIO GONÇALVES LEIE 249              00000               AMERICANOPOLIS                SAO PAULO                     SP04410000                                        PF000010294256806000000000000000               00000029170000002717000000020000000010412403TERRA                    TERRA               7060001        PULVERIZADOR TINTA TP350 W 110V                   20131130201311302014030120151130             00000022900                                                                                         
DTE011009500000000006530201301009500009100049700049700000004                   00000000000                              IVAIR ALVES NOGUEIRA          000000000000000000000000000000000000000000000000000AVENIDA SAO JOSE 406 BLOA AP02               00000               JD ROSINHA                    DIADEMA                       SP09910380                                        PF000000842683879000000000000000               00000011840000001103000000008100000004232412B & D                    B & D               0617960        FUR IMP 3/8 TM500 500W/560W S/MAL 1               20131127201311272014112820151127             00000008990                                                                                         
DTE011009500000000006530201301009500009100008500008500000004                   00000000000                              GILMAR DA SILVA OLIVEIRA      000000000000000000000000000000000000000000000000000av paramirim 2691 terreo                     00000               BRASIL                        VITORIA DA CONQUISTA          BA45100000                                        PF000052945448572000000000000000               00000079120000007368000000054400000028242412BOSCH                    BOSCH               1160373        POL GPO14CE 1389 0E0 220V                         20131126201311262014112720151126             00000067600                                                                                         
DTE011009500000000006530201301009500009100035400035400000004                   00000000000                              NICOLAU PINTO RIBEIRO         000000000000000000000000000000000000000000000000000RUA CAROLUS-DURAN 56 ,                       00000               VL GILDA                      SAO PAULO                     SP04953030                                        PF000000837542880000000000000000               00000100780000009385000000069300000035983612MAKITA                   MAKITA              7318455        MART SDS PLUS HR2610 C/MAL 220V                   20131127201311272014112820161127             00000047900                                                                                         
DTE011009500000000006530201301009500009100064600064600000004                   00000000000                              ANDRE PEREIRA NEVES           000000000000000000000000000000000000000000000000000RUA CARLO PREVOSTI 16                        00000               JD MIRIAM                     Sao Paulo                     SP08142510                                        PF000031561200816000000000000000               00000219950000020483000000151200000078523612V8 BRASIL                V8 BRASIL           7330037        MAQ SOLDA TIG MMA 240 200AMP 105446               20131125201311252014112620161125             00000159900                                                                                         
DTE011009500000000006530201301009500009100087400087400000004                   00000000000                              JOAQUIM JOSE DE ALMEIDA NETO  000000000000000000000000000000000000000000000000000RUA DAS ACACIAS 24 0                         00000               JD STA MARIA                  OSASCO                        SP06150491                                        PF000013984266871000000000000000               00000079120000007368000000054400000028242412BOSCH                    BOSCH               1169953        NIVEL LASER P/ LADRILHO GTL-3 01520               20131125201311252014112620151125             00000051400                                                                                         
DTE011009500000000006530201301009500009100031600031600000004                   00000000000                              JONIVAL DE MELLO BRUNO        000000000000000000000000000000000000000000000000000R FRANCISCO DE P DE MIRANDA MELLO 175 casa   00000               JARDIM BELA VISTA             SALESOPOLIS                   SP08970000                                        PF000006529147802000000000000000               00000029170000002717000000020000000010412412B & D                    B & D               0610322        APARADOR C VIVA 50CM HT500 220V 420               20131126201311262014112720151126             00000024900                                                                                         
DTE011009500000000006530201301009500009100002800002800000004                   00000000000                              ANTONIO GILBERTO LIMA DA SILVA000000000000000000000000000000000000000000000000000AVENIDA FERNANDO MENDES DE ALMEIDA 1704 .    00000               PRQ TAIPAS                    SAO PAULO                     SP02987100                                        PF000036883181881000000000000000               00000029170000002717000000020000000010412403TERRA                    TERRA               7060002        PULVERIZADOR TINTA TP350 W 220V                   20131125201311252014022620151125             00000022900                                                                                         
DTE011009500000000006530201301009500009100004800004800000004                   00000000000                              JOSUE ALGABA DE CARVALHO      000000000000000000000000000000000000000000000000000RUA MAESTRO ALFREDO BEVILACQUA 243           00000               JD T MARIAS                   SAO PAULO                     SP03676080                                        PF000014672345831000000000000000               00000017620000001641000000012100000006292403BRACOL                   BRACOL              6860054        BOMBA PERIF BRB120 1/2CV MON BIV                  20131123201311232014022420151123             00000014400                                                                                         
DTE011009500000000006530201301009500009100036400036400000004                   00000000000                              CLAUDIO ANTONIO CARVALHO ME   000000000000000000000000000000000000000000000000000RUA XERIMBABO 208 0                          00000               JD ALFREDO                    SAO PAULO                     SP04909020                                        PJ010911065000142000000000000000               00000062700000005839000000043100000022382400STIHL                    STIHL               6801014        LAV AP RE 98 220V 47750124503                     20131126201311262013112720151126             00000049900                                                                                         
DTE011009500000000006530201301009500009100035400035400000005                   00000000000                              ODEMIR LUIZ DE FREITAS        000000000000000000000000000000000000000000000000000RUA NELSON SPIELMAN 34                       00000               JD ELIZABETH                  SAO PAULO                     SP05793300                                        PF000003590956828000000000000000               00000028320000002637000000019500000010113603BRACOL                   BRACOL              6860054        BOMBA PERIF BRB120 1/2CV MON BIV                  20131129201311292014030120161129             00000014400                                                                                         
DTE011009500000000006530201301009500009100004800004800000005                   00000000000                              JOSE GOMES DOS SANTOS         000000000000000000000000000000000000000000000000000RUA FRANCISCO DIOGO  483                     00000               CASA VERDE                    SAO PAULO                     SP00000000                                        PF000017529341804000000000000000               00000029170000002717000000020000000010412412MAKITA                   MAKITA              7318384        SERRA MARM 4100NH2Z SECO 110V                     20131123201311232014112420151123             00000022900                                                                                         
DTE011009500000000006530201301009500009100002800002800000005                   00000000000                              JOSE BENEDITO FARIA           000000000000000000000000000000000000000000000000000RUA FERNANDA MSGGI 115                       00000               CENTRO                        SANTA ISABEL                  SP07500000                                        PF000088187489804000000000000000               00000035310000003288000000024300000012612403TERRA                    TERRA               7060004        PULVERIZADOR TINTA TP900 W 110V                   20131125201311252014022620151125             00000028900                                                                                         
DTE011009500000000006530201301009500009100031600031600000005                   00000000000                              IZAIAS LOPES DE SOUZA         000000000000000000000000000000000000000000000000000RUA PEDRO RIBEIRO FILHO 56                   00000               JD A PICOSSE                  SAO PAULO                     SP08553360                                        PF000004460171830000000000000000               00000035310000003288000000024300000012612403TERRA                    TERRA               7060005        PULVERIZADOR TINTA TP900 W 220V                   20131126201311262014022720151126             00000028900                                                                                         
DTE011009500000000006530201301009500009100087400087400000005                   00000000000                              TIAGO SOUZA FERREIRA          000000000000000000000000000000000000000000000000000RUA CANASTRA 18 .                            00000               JD MARISA                     SAO PAULO                     SP05108040                                        PF000031249247896000000000000000               00000028320000002637000000019500000010113603BRACOL                   BRACOL              6860054        BOMBA PERIF BRB120 1/2CV MON BIV                  20131125201311252014022620161125             00000014400                                                                                         
DTE011009500000000006530201301009500009100036400036400000005                   00000000000                              FLAVIA DIAS BAPTISTA          000000000000000000000000000000000000000000000000000RUA MARIA FIGUEIREDO 111 AP104               00000               PARAISO                       SAO PAULO                     SP04002001                                        PF000008502704800000000000000000               00000048490000004516000000033300000017312412B & D                    B & D               0618064        PISTOLA PINT HVLP 1L 390W BDPH400 1               20131127201311272014112820151127             00000031800                                                                                         
DTE011009500000000006530201301009500009100064600064600000005                   00000000000                              REINALDO SILVA MOURA          000000000000000000000000000000000000000000000000000RUA GRAVATA DA PEDRA 218  CASA 2             00000               JD IPES                       SAO PAULO                     SP08161265                                        PF000000122333829000000000000000               00000062700000005839000000043100000022382412BOSCH                    BOSCH               1160390        MART PERF/ROMP GBH2-24D PROF 2D0 11               20131128201311282014112920151128             00000049025                                                                                         
DTE011009500000000006530201301009500009100049700049700000005                   00000000000                              MARCELO MOREIRA DE OLIVEIRA   000000000000000000000000000000000000000000000000000AV DAS NAÇOES 20 TRA TELA VIVE               00000               JD NAÇOES                     DIADEMA                       SP09941135                                        PF000027698886840000000000000000               00000011840000001103000000008100000004232412B & D                    B & D               0618048        FUR 3/8 500W HD 400-BR 110V                       20131127201311272014112820151127             00000008990                                                                                         
DTE011009500000000006530201301009500009100049700049700000006                   00000000000                              GILVALDO LIMA DOS SANTOS      000000000000000000000000000000000000000000000000000AV ALDA  353 .                               00000               ELDORADO                      Sao Paulo                     SP04476240                                        PF000008838509824000000000000000               00000048490000004516000000033300000017312412B & D                    B & D               0618064        PISTOLA PINT HVLP 1L 390W BDPH400 1               20131127201311272014112820151127             00000031800                                                                                         
DTE011009500000000006530201301009500009100064600064600000006                   00000000000                              DAMIÃO FRANCISCO OLIVEIRA     000000000000000000000000000000000000000000000000000RUA ARARUTA 45 CASA                          00000               VL SEABRA                     SAO PAULO                     SP08180350                                        PF000056293739515000000000000000               00000011840000001103000000008100000004232412B & D                    B & D               0618048        FUR 3/8 500W HD 400-BR 110V                       20131128201311282014112920151128             00000008990                                                                                         
DTE011009500000000006530201301009500009100036400036400000006                   00000000000                              JODELMAR MIGUEL DE SOUSA      000000000000000000000000000000000000000000000000000RUA SERRA DOS FARRAPOS 05 CASA 01            00000               VL AURORA                     ITAPEVI                       SP06657240                                        PF000059122927387000000000000000               00000136840000012744000000094000000048852406BRANCO                   BRANCO              1480070        MULTICULT GAS 6,5CV B4T6,5 90312723               20131127201311272014052820151127             00000255206                                                                                         
DTE011009500000000006530201301009500009100087400087400000006                   00000000000                              FRANCISCO ODERO SOBRAL        000000000000000000000000000000000000000000000000000RUA ALTEMA DUTRA 16 .                        00000               JD DA GANA                    OSASCO                        SP06000000                                        PF000038751097834000000000000000               00000035310000003288000000024300000012612412B & D                    B & D               0610026        PLAINA ELET 3.1/4 650W 7698 220V                  20131125201311252014112620151125             00000025400                                                                                         
DTE011009500000000006530201301009500009100004800004800000006                   00000000000                              VALDINÁ ALVES DE ARAUJO       000000000000000000000000000000000000000000000000000AV ARCOIRIS 1770                             00000               LAGO AZUL                     SAO PAULO                     SP00000000                                        PF000039382907300000000000000000               00000048490000004516000000033300000017312406VONDER                   VONDER              1583836        MAQUINA SOLDA 250A TS-250                         20131123201311232014052420151123             00000032900                                                                                         
DTE011009500000000006530201301009500009100031600031600000006                   00000000000                              PAULO MONTEIRO DEBEUS         000000000000000000000000000000000000000000000000000RUA DOUTOR NICOLINO MORENA 213 AP 21B        00000               VL CONSTANCIA                 SAO PAULO                     SP02257000                                        PF000005679683830000000000000000               00000056760000005286000000039000000020263603TERRA                    TERRA               7060004        PULVERIZADOR TINTA TP900 W 110V                   20131126201311262014022720161126             00000028900                                                                                         
DTE011009500000000006530201301009500009100002800002800000006                   00000000000                              JOSE JUSIMAR TEIXEIRA DA SILVA000000000000000000000000000000000000000000000000000RUA FLORENCIO DE ABREU  12 CASA              00000               CENTRO                        SAO PAULO                     SP01029000                                        PF000004934096884000000000000000               00000035310000003288000000024300000012612406BONUS                    BONUS               4900019        COMPR BAL IB02 POP 220V 164                       20131126201311262014052720151126             00000025900                                                                                         
DTE011009500000000006530201301009500009100035400035400000006                   00000000000                              ODEMIR LUIZ DE FREITAS        000000000000000000000000000000000000000000000000000RUA NELSON SPIELMAN 34                       00000               JD ELIZABETH                  SAO PAULO                     SP05793300                                        PF000003590956828000000000000000               00000019030000001772000000013100000006793612MINIPA                   MINIPA              6670002        MULTIMETRO DIGITAL ET-1100                        20131129201311292014113020161129             00000007500                                                                                         
DTE011009500000000006530201301009500009100031600031600000007                   00000000000                              ANDRE LUIZ DE OLIVEIRA SANTOS 000000000000000000000000000000000000000000000000000AVENIDA ARICANDUVA 19 d                      00000               JD S GONCALO                  SAO PAULO                     SP08370160                                        PF000028139973823000000000000000               00000035310000003288000000024300000012612403TERRA                    TERRA               7060004        PULVERIZADOR TINTA TP900 W 110V                   20131126201311262014022720151126             00000028900                                                                                         
DTE011009500000000006530201301009500009100035400035400000007                   00000000000                              RONIVAL SANTANA DO NASCIMENTO 000000000000000000000000000000000000000000000000000RUA MARTINS SARMENTO 695 .                   00000               PRQ INDEPENDENCIA             SAO PAULO                     SP05878000                                        PF000027212789836000000000000000               00000028320000002637000000019500000010113603BRACOL                   BRACOL              6860054        BOMBA PERIF BRB120 1/2CV MON BIV                  20131130201311302014030120161130             00000014400                                                                                         
DTE011009500000000006530201301009500009100004800004800000007                   00000000000                              VALERIA APARECIDA FONSECA ALVE000000000000000000000000000000000000000000000000000RUA ALBERTO CAPELLANI 42 CAS                 00000               PRQ BELEM                     SAO PAULO                     SP02850007                                        PF000027969537855000000000000000               00000029170000002717000000020000000010412412MAKITA                   MAKITA              7318436        SERRA MARM 4100NH2Z SECO 220V                     20131125201311252014112620151125             00000022900                                                                                         
DTE011009500000000006530201301009500009100087400087400000007                   00000000000                              DANIEL DA SILVA               000000000000000000000000000000000000000000000000000RUA SERGIO CARDOSO 153 .                     00000               PRQ S TERESA                  CARAPICUIBA                   SP06341315                                        PF000003160665836000000000000000               00000029170000002717000000020000000010412412B & D                    B & D               0610321        APARADOR C VIVA 50CM HT500 110V 420               20131125201311252014112620151125             00000024900                                                                                         
DTE011009500000000006530201301009500009100064600064600000007                   00000000000                              WAGNER PEIXOTO                000000000000000000000000000000000000000000000000000RUA SEVERINO CARDOSO DA SILVA 269            00000               C EMBIRA                      SAO PAULO                     SP03383000                                        PF000005099396860000000000000000               00000079120000007368000000054400000028242400STIHL                    STIHL               6800976        MOTOSSERRA 30CC 1,3KW GAS MS170 30C               20131128201311282013112920151128             00000059900                                                                                         
DTE011009500000000006530201301009500009100049700049700000007                   00000000000                              GABRIELA SALES BARRETO        000000000000000000000000000000000000000000000000000RUA VISCONDE DE PELOTAS 06 0                 00000               JD REY                        DIADEMA                       SP09910540                                        PF000042867949890000000000000000               00000011840000001103000000008100000004232412B & D                    B & D               0617960        FUR IMP 3/8 TM500 500W/560W S/MAL 1               20131127201311272014112820151127             00000008990                                                                                         
DTE011009500000000006530201301009500009100002800002800000007                   00000000000                              ACASSIO APARECIDO BANES       000000000000000000000000000000000000000000000000000RUA ELISIO FONSECA 8 CASA                    00000               VL FANTON                     SAO PAULO                     SP05203370                                        PF000008738185806000000000000000               00000035310000003288000000024300000012612412BOSCH                    BOSCH               1160031        ESM ANG 4.1/2 GWS7-115 ET 3885E1 22               20131126201311262014112720151126             00000026990                                                                                         
DTE011009500000000006530201301009500009100002800002800000008                   00000000000                              DANIEL NANI                   000000000000000000000000000000000000000000000000000RUA RODESIA 479 .                            00000               JD BONFIGLIOLI                JUNDIAI                       SP13207310                                        PF000033179589876000000000000000               00000011840000001103000000008100000004232412B & D                    B & D               0618049        FUR 3/8 500W HD 400-B2 220V                       20131127201311272014112820151127             00000008990                                                                                         
DTE011009500000000006530201301009500009100004800004800000008                   00000000000                              JOSE COSTA DA SILVA           000000000000000000000000000000000000000000000000000RUA SABOGUEIRO 50 casa 02                    00000               GUARANI                       SAO PAULO                     SP00000000                                        PF000051375524887000000000000000               00000136840000012744000000094000000048852406BRANCO                   BRANCO              1480062        GER GAS 1300W MONO B4T1300L 220V P/               20131125201311252014052620151125             00000099900                                                                                         
DTE011009500000000006530201301009500009100049700049700000008                   00000000000                              ENE MATRERIAS ELETRICOS LTDA M000000000000000000000000000000000000000000000000000RUA PROFESSOR MARCOS LINDEMBERG 116 .        00000               VL IMPERIO                    SAO PAULO                     SP04406190                                        PJ016101017000175000000000000000               00000062700000005839000000043100000022382412MAKITA                   MAKITA              7318359        PARAF/FUR  BAT 14,4V 2AH 6281DWPE 2               20131128201311282014112920151128             00000044400                                                                                         
DTE011009500000000006530201301009500009100064600064600000008                   00000000000                              ELZA DONATO BARBOSA           000000000000000000000000000000000000000000000000000RUA MANOEL LEMES DA SILVA 282                00000               JD OLIVEIRAS                  SAO PAULO                     SP08122140                                        PF000002343756805000000000000000               00000136840000012744000000094000000048852400STIHL                    STIHL               6800982        ROCAD GAS 1,3CV GSB 230 FS 80 0249                20131128201311282013112920151128             00000093922                                                                                         
DTE011009500000000006530201301009500009100087400087400000008                   00000000000                              HERMANNAUTICA INDUSTRIA E COM.000000000000000000000000000000000000000000000000000R CABO PM JOSE LUIZ FRANCA 24 0              00000               VL TEREZINHA                  CARAPICUIBA                   SP06300000                                        PJ072002884000124000000000000000               00000079120000007368000000054400000028242403BRACOL                   BRACOL              6860061        SERRA CIRC BANC 10 BRS2500 220V 150               20131127201311272014022820151127             00000053900                                                                                         
DTE011009500000000006530201301009500009100031600031600000008                   00000000000                              CARLOS TOSHIHIKO UEZATO       000000000000000000000000000000000000000000000000000RUA JERICINO 63                              00000               CH CALIFORNIA                 SAO PAULO                     SP03442000                                        PF000033225853879000000000000000               00000029170000002717000000020000000010412403TERRA                    TERRA               7060001        PULVERIZADOR TINTA TP350 W 110V                   20131128201311282014030120151128             00000022900                                                                                         
DTE011009500000000006530201301009500009100064600064600000009                   00000000000                              ANTONIO SANTOS DA COSTA       000000000000000000000000000000000000000000000000000RUA DAS OLIVEIRAS 69 CASA                    00000               JARDIM CREPUSCULO             GUARULHOS                     SP07082670                                        PF000083101608104000000000000000               00000219950000020483000000151200000078523612V8 BRASIL                V8 BRASIL           7330037        MAQ SOLDA TIG MMA 240 200AMP 105446               20131129201311292014113020161129             00000159900                                                                                         
DTE011009500000000006530201301009500009100031600031600000009                   00000000000                              JOAO BATISTA FERREIRA ALBUQUER000000000000000000000000000000000000000000000000000RUA DIONISIO AGUADO GARCIA 48                00000               PRQ BANCARIOS                 SAO PAULO                     SP03923000                                        PF000014392935892000000000000000               00000025680000002392000000017600000009172412B & D                    B & D               0618063        PISTOLA PINT HVLP 1L 350W BDPH200B                20131129201311292014113020151129             00000019900                                                                                         
DTE011009500000000006530201301009500009100049700049700000009                   00000000000                              FRANCISCA PEREIRA             000000000000000000000000000000000000000000000000000RUA RUI BARBOSA 60 .                         00000               VL S VICENTE                  DIADEMA                       SP09920320                                        PF000029766914877000000000000000               00000035310000003288000000024300000012612412BOSCH                    BOSCH               1160424        FUR IMP 1/2 GSB16RE 12185E0 S/MAL 2               20131128201311282014112920151128             00000026990                                                                                         
DTE011009500000000006530201301009500009100004800004800000009                   00000000000                              RITA DE CASSIA SEIXAS SAMPAIO 000000000000000000000000000000000000000000000000000RUA DOUTOR JOAO PASSOS 73                    00000               VL A BRASILEIRA               SAO PAULO                     SP05030080                                        PF000001687023808000000000000000               00000079120000007368000000054400000028242400STIHL                    STIHL               6800981        ROCAD GAS 1,0CV GSB 230 2F FS 55 03               20131126201311262013112720151126             00000069900                                                                                         
TRR000320140106164902000000138                                                                                                                                                                                                                                                                                                                                                                                                                                                                                                                                                                                                                                                                                                                    
