HDR0000000120131008094558AP                                                                                                                                                                                                                                                                                                                                                                                                                                                                                                                                                                                                                                                                       0000000000
DTE121000012365478901810000002200000009100000000000Vitor                                             ADILSON PINTO DE SOUZA - FUNC                                                   M20130101001103312325400000000000000000000000000R MAMONEIRAS, 38 38                                                             00000                         RIO BONITO                                        SAO PAULO                                         SP04824020                                                  000089681258800000000000000000               000000049900000004810000000018000000000020131005 12 2013100520141005 000000000000 20131005000000                                            
DTE121000012365478901810000002300000009100000000000Vitor                                             ADILSON PINTO DE SOUZA - FUNC                                                   M20130101001103312325400000000000000000000000000R MAMONEIRAS, 38 38                                                             00000                         RIO BONITO                                        SAO PAULO                                         SP04824020                                                  000089681258800000000000000000               000000049900000004810000000018000000000020131005 12 2013100520141005 000000000000 20131005000000                                            
DTE121000012365478901810000002400000009100000000000Vitor                                             ADILSON PINTO DE SOUZA - FUNC                                                   M20130101001103312325400000000000000000000000000R MAMONEIRAS, 38 38                                                             00000                         RIO BONITO                                        SAO PAULO                                         SP04824020                                                  000089681258800000000000000000               000000049900000004810000000018000000000020131005 12 2013100520141005 000000000000 20131005000000                                            
TRR000120131008094558000000003                                                                                                                                                                                                                                                                                                                                                                                                                                                                                                                                                                                                                                                                    0000000000
